{
  "address": "0x942d4cf9236e7e8A752Db8526b18164E394d9324",
  "abi": [
    {
      "inputs": [
        {
          "internalType": "contract Svgs",
          "name": "_svgs",
          "type": "address"
        },
        {
          "internalType": "string",
          "name": "_baseTokenURI",
          "type": "string"
        },
        {
          "internalType": "string[]",
          "name": "_firstNames",
          "type": "string[]"
        },
        {
          "internalType": "string[]",
          "name": "_lastNames",
          "type": "string[]"
        }
      ],
      "stateMutability": "nonpayable",
      "type": "constructor"
    },
    {
      "anonymous": false,
      "inputs": [
        {
          "indexed": true,
          "internalType": "address",
          "name": "owner",
          "type": "address"
        },
        {
          "indexed": true,
          "internalType": "address",
          "name": "approved",
          "type": "address"
        },
        {
          "indexed": true,
          "internalType": "uint256",
          "name": "tokenId",
          "type": "uint256"
        }
      ],
      "name": "Approval",
      "type": "event"
    },
    {
      "anonymous": false,
      "inputs": [
        {
          "indexed": true,
          "internalType": "address",
          "name": "owner",
          "type": "address"
        },
        {
          "indexed": true,
          "internalType": "address",
          "name": "operator",
          "type": "address"
        },
        {
          "indexed": false,
          "internalType": "bool",
          "name": "approved",
          "type": "bool"
        }
      ],
      "name": "ApprovalForAll",
      "type": "event"
    },
    {
      "anonymous": false,
      "inputs": [
        {
          "indexed": true,
          "internalType": "address",
          "name": "previousOwner",
          "type": "address"
        },
        {
          "indexed": true,
          "internalType": "address",
          "name": "newOwner",
          "type": "address"
        }
      ],
      "name": "OwnershipTransferred",
      "type": "event"
    },
    {
      "anonymous": false,
      "inputs": [
        {
          "indexed": false,
          "internalType": "uint256",
          "name": "tokenId",
          "type": "uint256"
        },
        {
          "indexed": false,
          "internalType": "string",
          "name": "firstName",
          "type": "string"
        },
        {
          "indexed": false,
          "internalType": "string",
          "name": "lastName",
          "type": "string"
        },
        {
          "indexed": false,
          "internalType": "bool",
          "name": "goalKeeper",
          "type": "bool"
        },
        {
          "indexed": false,
          "internalType": "uint256[7]",
          "name": "traits",
          "type": "uint256[7]"
        }
      ],
      "name": "PlayerSigned",
      "type": "event"
    },
    {
      "anonymous": false,
      "inputs": [
        {
          "indexed": true,
          "internalType": "address",
          "name": "from",
          "type": "address"
        },
        {
          "indexed": true,
          "internalType": "address",
          "name": "to",
          "type": "address"
        },
        {
          "indexed": true,
          "internalType": "uint256",
          "name": "tokenId",
          "type": "uint256"
        }
      ],
      "name": "Transfer",
      "type": "event"
    },
    {
      "inputs": [
        {
          "internalType": "address",
          "name": "to",
          "type": "address"
        },
        {
          "internalType": "uint256",
          "name": "tokenId",
          "type": "uint256"
        }
      ],
      "name": "approve",
      "outputs": [],
      "stateMutability": "nonpayable",
      "type": "function"
    },
    {
      "inputs": [
        {
          "internalType": "address",
          "name": "owner",
          "type": "address"
        }
      ],
      "name": "balanceOf",
      "outputs": [
        {
          "internalType": "uint256",
          "name": "",
          "type": "uint256"
        }
      ],
      "stateMutability": "view",
      "type": "function"
    },
    {
      "inputs": [
        {
          "internalType": "uint256",
          "name": "tokenId",
          "type": "uint256"
        }
      ],
      "name": "getApproved",
      "outputs": [
        {
          "internalType": "address",
          "name": "",
          "type": "address"
        }
      ],
      "stateMutability": "view",
      "type": "function"
    },
    {
      "inputs": [
        {
          "internalType": "uint256",
          "name": "tokenId",
          "type": "uint256"
        }
      ],
      "name": "getPlayerSvg",
      "outputs": [
        {
          "internalType": "string",
          "name": "",
          "type": "string"
        }
      ],
      "stateMutability": "view",
      "type": "function"
    },
    {
      "inputs": [
        {
          "internalType": "uint256",
          "name": "tokenId",
          "type": "uint256"
        }
      ],
      "name": "getTraits",
      "outputs": [
        {
          "internalType": "uint256[7]",
          "name": "",
          "type": "uint256[7]"
        }
      ],
      "stateMutability": "view",
      "type": "function"
    },
    {
      "inputs": [
        {
          "internalType": "address",
          "name": "owner",
          "type": "address"
        },
        {
          "internalType": "address",
          "name": "operator",
          "type": "address"
        }
      ],
      "name": "isApprovedForAll",
      "outputs": [
        {
          "internalType": "bool",
          "name": "",
          "type": "bool"
        }
      ],
      "stateMutability": "view",
      "type": "function"
    },
    {
      "inputs": [
        {
          "internalType": "uint256",
          "name": "tokenId",
          "type": "uint256"
        }
      ],
      "name": "mint",
      "outputs": [],
      "stateMutability": "payable",
      "type": "function"
    },
    {
      "inputs": [],
      "name": "name",
      "outputs": [
        {
          "internalType": "string",
          "name": "",
          "type": "string"
        }
      ],
      "stateMutability": "view",
      "type": "function"
    },
    {
      "inputs": [],
      "name": "owner",
      "outputs": [
        {
          "internalType": "address",
          "name": "",
          "type": "address"
        }
      ],
      "stateMutability": "view",
      "type": "function"
    },
    {
      "inputs": [
        {
          "internalType": "uint256",
          "name": "tokenId",
          "type": "uint256"
        }
      ],
      "name": "ownerOf",
      "outputs": [
        {
          "internalType": "address",
          "name": "",
          "type": "address"
        }
      ],
      "stateMutability": "view",
      "type": "function"
    },
    {
      "inputs": [],
      "name": "renounceOwnership",
      "outputs": [],
      "stateMutability": "nonpayable",
      "type": "function"
    },
    {
      "inputs": [
        {
          "internalType": "address",
          "name": "from",
          "type": "address"
        },
        {
          "internalType": "address",
          "name": "to",
          "type": "address"
        },
        {
          "internalType": "uint256",
          "name": "tokenId",
          "type": "uint256"
        }
      ],
      "name": "safeTransferFrom",
      "outputs": [],
      "stateMutability": "nonpayable",
      "type": "function"
    },
    {
      "inputs": [
        {
          "internalType": "address",
          "name": "from",
          "type": "address"
        },
        {
          "internalType": "address",
          "name": "to",
          "type": "address"
        },
        {
          "internalType": "uint256",
          "name": "tokenId",
          "type": "uint256"
        },
        {
          "internalType": "bytes",
          "name": "_data",
          "type": "bytes"
        }
      ],
      "name": "safeTransferFrom",
      "outputs": [],
      "stateMutability": "nonpayable",
      "type": "function"
    },
    {
      "inputs": [
        {
          "internalType": "address",
          "name": "operator",
          "type": "address"
        },
        {
          "internalType": "bool",
          "name": "approved",
          "type": "bool"
        }
      ],
      "name": "setApprovalForAll",
      "outputs": [],
      "stateMutability": "nonpayable",
      "type": "function"
    },
    {
      "inputs": [
        {
          "internalType": "string",
          "name": "uri",
          "type": "string"
        }
      ],
      "name": "setBaseURI",
      "outputs": [],
      "stateMutability": "nonpayable",
      "type": "function"
    },
    {
      "inputs": [
        {
          "internalType": "bytes4",
          "name": "interfaceId",
          "type": "bytes4"
        }
      ],
      "name": "supportsInterface",
      "outputs": [
        {
          "internalType": "bool",
          "name": "",
          "type": "bool"
        }
      ],
      "stateMutability": "view",
      "type": "function"
    },
    {
      "inputs": [],
      "name": "symbol",
      "outputs": [
        {
          "internalType": "string",
          "name": "",
          "type": "string"
        }
      ],
      "stateMutability": "view",
      "type": "function"
    },
    {
      "inputs": [
        {
          "internalType": "uint256",
          "name": "tokenId",
          "type": "uint256"
        }
      ],
      "name": "tokenURI",
      "outputs": [
        {
          "internalType": "string",
          "name": "",
          "type": "string"
        }
      ],
      "stateMutability": "view",
      "type": "function"
    },
    {
      "inputs": [
        {
          "internalType": "address",
          "name": "from",
          "type": "address"
        },
        {
          "internalType": "address",
          "name": "to",
          "type": "address"
        },
        {
          "internalType": "uint256",
          "name": "tokenId",
          "type": "uint256"
        }
      ],
      "name": "transferFrom",
      "outputs": [],
      "stateMutability": "nonpayable",
      "type": "function"
    },
    {
      "inputs": [
        {
          "internalType": "address",
          "name": "newOwner",
          "type": "address"
        }
      ],
      "name": "transferOwnership",
      "outputs": [],
      "stateMutability": "nonpayable",
      "type": "function"
    },
    {
      "inputs": [
        {
          "internalType": "uint256",
          "name": "tokenId",
          "type": "uint256"
        },
        {
          "internalType": "uint256[7]",
          "name": "newTraits",
          "type": "uint256[7]"
        }
      ],
      "name": "updateNumericTraits",
      "outputs": [],
      "stateMutability": "nonpayable",
      "type": "function"
    }
  ],
  "transactionHash": "0x40971a39908de6a7c0936006939c7ea93e68401d628be6fee9033600101832be",
  "args": [
    "0x8d5Ad3C14AFf68cf121aEB316232771443834A84",
    "null",
    [
      "Fraser",
      "George",
      "Jordan",
      "Sam"
    ],
    [
      "Benton",
      "Scott",
      "Lord",
      "Jackson"
    ]
  ],
  "numDeployments": 2,
  "solcInputHash": "56ab017b943488dbba082a529bffa80f",
  "bytecode": "0x61016060405260056080908152600a60a0819052600860c05260e0819052600961010052600361012052610140526200003c9060079081620001b2565b503480156200004a57600080fd5b5060405162003b2938038062003b298339810160408190526200006d91620004d9565b6040805180820182526012815271466f6f7469756d4c697465506c617965727360701b6020808301918252835180850190945260038452620464c560ec1b908401528151919291620000c291600091620001fa565b508051620000d8906001906020840190620001fa565b505050620000f5620000ef6200015c60201b60201c565b62000160565b600e80546001600160a01b0319166001600160a01b03861617905581516200012590601090602085019062000277565b5080516200013b90601190602084019062000277565b5082516200015190600f906020860190620001fa565b5050505050620005c8565b3390565b600680546001600160a01b038381166001600160a01b0319831681179093556040519116919082907f8be0079c531659141344cd1fd0a4f28419497f9722a3daafe3b4186f6b6457e090600090a35050565b8260078101928215620001e8579160200282015b82811115620001e8578251829060ff16905591602001919060010190620001c6565b50620001f6929150620002d7565b5090565b82805462000208906200058b565b90600052602060002090601f0160209004810192826200022c5760008555620001e8565b82601f106200024757805160ff1916838001178555620001e8565b82800160010185558215620001e8579182015b82811115620001e85782518255916020019190600101906200025a565b828054828255906000526020600020908101928215620002c9579160200282015b82811115620002c95782518051620002b8918491602090910190620001fa565b509160200191906001019062000298565b50620001f6929150620002ee565b5b80821115620001f65760008155600101620002d8565b80821115620001f65760006200030582826200030f565b50600101620002ee565b5080546200031d906200058b565b6000825580601f106200032e575050565b601f0160209004906000526020600020908101906200034e9190620002d7565b50565b634e487b7160e01b600052604160045260246000fd5b604051601f8201601f191681016001600160401b038111828210171562000392576200039262000351565b604052919050565b600082601f830112620003ac57600080fd5b81516001600160401b03811115620003c857620003c862000351565b6020620003de601f8301601f1916820162000367565b8281528582848701011115620003f357600080fd5b60005b8381101562000413578581018301518282018401528201620003f6565b83811115620004255760008385840101525b5095945050505050565b600082601f8301126200044157600080fd5b815160206001600160401b038083111562000460576200046062000351565b8260051b6200047183820162000367565b93845285810183019383810190888611156200048c57600080fd5b84880192505b85831015620004cd57825184811115620004ac5760008081fd5b620004bc8a87838c01016200039a565b835250918401919084019062000492565b98975050505050505050565b60008060008060808587031215620004f057600080fd5b84516001600160a01b03811681146200050857600080fd5b60208601519094506001600160401b03808211156200052657600080fd5b62000534888389016200039a565b945060408701519150808211156200054b57600080fd5b62000559888389016200042f565b935060608701519150808211156200057057600080fd5b506200057f878288016200042f565b91505092959194509250565b600181811c90821680620005a057607f821691505b60208210811415620005c257634e487b7160e01b600052602260045260246000fd5b50919050565b61355180620005d86000396000f3fe60806040526004361061016a5760003560e01c806370a08231116100cb578063a22cb4651161007f578063e1dc076111610059578063e1dc0761146103e3578063e985e9c514610410578063f2fde38b1461046657600080fd5b8063a22cb46514610383578063b88d4fde146103a3578063c87b56dd146103c357600080fd5b80638da5cb5b116100b05780638da5cb5b1461033057806395d89b411461035b578063a0712d681461037057600080fd5b806370a08231146102ed578063715018a61461031b57600080fd5b806323b872dd116101225780634c776b57116101075780634c776b571461028d57806355f804b3146102ad5780636352211e146102cd57600080fd5b806323b872dd1461024d57806342842e0e1461026d57600080fd5b8063081812fc11610153578063081812fc146101c6578063095ea7b31461020b57806318439bc81461022d57600080fd5b806301ffc9a71461016f57806306fdde03146101a4575b600080fd5b34801561017b57600080fd5b5061018f61018a366004612c50565b610486565b60405190151581526020015b60405180910390f35b3480156101b057600080fd5b506101b961056b565b60405161019b9190612ce3565b3480156101d257600080fd5b506101e66101e1366004612cf6565b6105fd565b60405173ffffffffffffffffffffffffffffffffffffffff909116815260200161019b565b34801561021757600080fd5b5061022b610226366004612d38565b6106dc565b005b34801561023957600080fd5b5061022b610248366004612d62565b610869565b34801561025957600080fd5b5061022b610268366004612d98565b610907565b34801561027957600080fd5b5061022b610288366004612d98565b6109a8565b34801561029957600080fd5b506101b96102a8366004612cf6565b6109c3565b3480156102b957600080fd5b5061022b6102c8366004612dd4565b6114c8565b3480156102d957600080fd5b506101e66102e8366004612cf6565b611555565b3480156102f957600080fd5b5061030d610308366004612e46565b611607565b60405190815260200161019b565b34801561032757600080fd5b5061022b6116d5565b34801561033c57600080fd5b5060065473ffffffffffffffffffffffffffffffffffffffff166101e6565b34801561036757600080fd5b506101b9611762565b61022b61037e366004612cf6565b611771565b34801561038f57600080fd5b5061022b61039e366004612e61565b611bb5565b3480156103af57600080fd5b5061022b6103be366004612f61565b611bc4565b3480156103cf57600080fd5b506101b96103de366004612cf6565b611c6c565b3480156103ef57600080fd5b506104036103fe366004612cf6565b611d6c565b60405161019b919061300c565b34801561041c57600080fd5b5061018f61042b36600461303d565b73ffffffffffffffffffffffffffffffffffffffff918216600090815260056020908152604080832093909416825291909152205460ff1690565b34801561047257600080fd5b5061022b610481366004612e46565b611dbb565b60007fffffffff0000000000000000000000000000000000000000000000000000000082167f80ac58cd00000000000000000000000000000000000000000000000000000000148061051957507fffffffff0000000000000000000000000000000000000000000000000000000082167f5b5e139f00000000000000000000000000000000000000000000000000000000145b8061056557507f01ffc9a7000000000000000000000000000000000000000000000000000000007fffffffff000000000000000000000000000000000000000000000000000000008316145b92915050565b60606000805461057a90613070565b80601f01602080910402602001604051908101604052809291908181526020018280546105a690613070565b80156105f35780601f106105c8576101008083540402835291602001916105f3565b820191906000526020600020905b8154815290600101906020018083116105d657829003601f168201915b5050505050905090565b60008181526002602052604081205473ffffffffffffffffffffffffffffffffffffffff166106b3576040517f08c379a000000000000000000000000000000000000000000000000000000000815260206004820152602c60248201527f4552433732313a20617070726f76656420717565727920666f72206e6f6e657860448201527f697374656e7420746f6b656e000000000000000000000000000000000000000060648201526084015b60405180910390fd5b5060009081526004602052604090205473ffffffffffffffffffffffffffffffffffffffff1690565b60006106e782611555565b90508073ffffffffffffffffffffffffffffffffffffffff168373ffffffffffffffffffffffffffffffffffffffff1614156107a5576040517f08c379a000000000000000000000000000000000000000000000000000000000815260206004820152602160248201527f4552433732313a20617070726f76616c20746f2063757272656e74206f776e6560448201527f720000000000000000000000000000000000000000000000000000000000000060648201526084016106aa565b3373ffffffffffffffffffffffffffffffffffffffff821614806107ce57506107ce813361042b565b61085a576040517f08c379a000000000000000000000000000000000000000000000000000000000815260206004820152603860248201527f4552433732313a20617070726f76652063616c6c6572206973206e6f74206f7760448201527f6e6572206e6f7220617070726f76656420666f7220616c6c000000000000000060648201526084016106aa565b6108648383611eeb565b505050565b60065473ffffffffffffffffffffffffffffffffffffffff1633146108ea576040517f08c379a000000000000000000000000000000000000000000000000000000000815260206004820181905260248201527f4f776e61626c653a2063616c6c6572206973206e6f7420746865206f776e657260448201526064016106aa565b600082815260126020526040902061086490600301826007612aac565b6109113382611f8b565b61099d576040517f08c379a000000000000000000000000000000000000000000000000000000000815260206004820152603160248201527f4552433732313a207472616e736665722063616c6c6572206973206e6f74206f60448201527f776e6572206e6f7220617070726f76656400000000000000000000000000000060648201526084016106aa565b6108648383836120fb565b61086483838360405180602001604052806000815250611bc4565b600e54600082815260126020526040808220600a015490517ff300633d0000000000000000000000000000000000000000000000000000000081527f706f7365000000000000000000000000000000000000000000000000000000006004820152602481019190915260609273ffffffffffffffffffffffffffffffffffffffff169063f300633d9060440160006040518083038186803b158015610a6757600080fd5b505afa158015610a7b573d6000803e3d6000fd5b505050506040513d6000823e601f3d9081017fffffffffffffffffffffffffffffffffffffffffffffffffffffffffffffffe0168201604052610ac191908101906130f3565b600e8054600086815260126020526040908190209092015491517ff300633d0000000000000000000000000000000000000000000000000000000081527f66616369616c00000000000000000000000000000000000000000000000000006004820152602481019290925273ffffffffffffffffffffffffffffffffffffffff169063f300633d9060440160006040518083038186803b158015610b6457600080fd5b505afa158015610b78573d6000803e3d6000fd5b505050506040513d6000823e601f3d9081017fffffffffffffffffffffffffffffffffffffffffffffffffffffffffffffffe0168201604052610bbe91908101906130f3565b600e5460008681526012602052604090819020600b015490517ff300633d0000000000000000000000000000000000000000000000000000000081527f68616972000000000000000000000000000000000000000000000000000000006004820152602481019190915273ffffffffffffffffffffffffffffffffffffffff9091169063f300633d9060440160006040518083038186803b158015610c6257600080fd5b505afa158015610c76573d6000803e3d6000fd5b505050506040513d6000823e601f3d9081017fffffffffffffffffffffffffffffffffffffffffffffffffffffffffffffffe0168201604052610cbc91908101906130f3565b600e5460008781526012602052604090819020600c015490517ff300633d0000000000000000000000000000000000000000000000000000000081527f62726f77000000000000000000000000000000000000000000000000000000006004820152602481019190915273ffffffffffffffffffffffffffffffffffffffff9091169063f300633d9060440160006040518083038186803b158015610d6057600080fd5b505afa158015610d74573d6000803e3d6000fd5b505050506040513d6000823e601f3d9081017fffffffffffffffffffffffffffffffffffffffffffffffffffffffffffffffe0168201604052610dba91908101906130f3565b600e5460008881526012602052604090819020600d015490517ff300633d0000000000000000000000000000000000000000000000000000000081527f65796500000000000000000000000000000000000000000000000000000000006004820152602481019190915273ffffffffffffffffffffffffffffffffffffffff9091169063f300633d9060440160006040518083038186803b158015610e5e57600080fd5b505afa158015610e72573d6000803e3d6000fd5b505050506040513d6000823e601f3d9081017fffffffffffffffffffffffffffffffffffffffffffffffffffffffffffffffe0168201604052610eb891908101906130f3565b604051602001610ecc95949392919061316a565b604080518083037fffffffffffffffffffffffffffffffffffffffffffffffffffffffffffffffe0018152828252600e546000878152601260205292909220600f01547ff300633d0000000000000000000000000000000000000000000000000000000084527f6d6f757468000000000000000000000000000000000000000000000000000000600485015260248401529250829173ffffffffffffffffffffffffffffffffffffffff9091169063f300633d9060440160006040518083038186803b158015610f9b57600080fd5b505afa158015610faf573d6000803e3d6000fd5b505050506040513d6000823e601f3d9081017fffffffffffffffffffffffffffffffffffffffffffffffffffffffffffffffe0168201604052610ff591908101906130f3565b600e54600086815260126020526040908190206010015490517ff300633d0000000000000000000000000000000000000000000000000000000081527f6e6f7365000000000000000000000000000000000000000000000000000000006004820152602481019190915273ffffffffffffffffffffffffffffffffffffffff9091169063f300633d9060440160006040518083038186803b15801561109957600080fd5b505afa1580156110ad573d6000803e3d6000fd5b505050506040513d6000823e601f3d9081017fffffffffffffffffffffffffffffffffffffffffffffffffffffffffffffffe01682016040526110f391908101906130f3565b600e546040517ff300633d0000000000000000000000000000000000000000000000000000000081527f736869727400000000000000000000000000000000000000000000000000000060048201526000602482015273ffffffffffffffffffffffffffffffffffffffff9091169063f300633d9060440160006040518083038186803b15801561118357600080fd5b505afa158015611197573d6000803e3d6000fd5b505050506040513d6000823e601f3d9081017fffffffffffffffffffffffffffffffffffffffffffffffffffffffffffffffe01682016040526111dd91908101906130f3565b600e546040517ff300633d0000000000000000000000000000000000000000000000000000000081527f73686f727473000000000000000000000000000000000000000000000000000060048201526000602482015273ffffffffffffffffffffffffffffffffffffffff9091169063f300633d9060440160006040518083038186803b15801561126d57600080fd5b505afa158015611281573d6000803e3d6000fd5b505050506040513d6000823e601f3d9081017fffffffffffffffffffffffffffffffffffffffffffffffffffffffffffffffe01682016040526112c791908101906130f3565b600e546040517ff300633d0000000000000000000000000000000000000000000000000000000081527f736f636b7300000000000000000000000000000000000000000000000000000060048201526000602482015273ffffffffffffffffffffffffffffffffffffffff9091169063f300633d9060440160006040518083038186803b15801561135757600080fd5b505afa15801561136b573d6000803e3d6000fd5b505050506040513d6000823e601f3d9081017fffffffffffffffffffffffffffffffffffffffffffffffffffffffffffffffe01682016040526113b191908101906130f3565b600e546040517ff300633d0000000000000000000000000000000000000000000000000000000081527f73686f657300000000000000000000000000000000000000000000000000000060048201526000602482015273ffffffffffffffffffffffffffffffffffffffff9091169063f300633d9060440160006040518083038186803b15801561144157600080fd5b505afa158015611455573d6000803e3d6000fd5b505050506040513d6000823e601f3d9081017fffffffffffffffffffffffffffffffffffffffffffffffffffffffffffffffe016820160405261149b91908101906130f3565b6040516020016114b19796959493929190613273565b604051602081830303815290604052915050919050565b60065473ffffffffffffffffffffffffffffffffffffffff163314611549576040517f08c379a000000000000000000000000000000000000000000000000000000000815260206004820181905260248201527f4f776e61626c653a2063616c6c6572206973206e6f7420746865206f776e657260448201526064016106aa565b610864600f8383612aea565b60008181526002602052604081205473ffffffffffffffffffffffffffffffffffffffff1680610565576040517f08c379a000000000000000000000000000000000000000000000000000000000815260206004820152602960248201527f4552433732313a206f776e657220717565727920666f72206e6f6e657869737460448201527f656e7420746f6b656e000000000000000000000000000000000000000000000060648201526084016106aa565b600073ffffffffffffffffffffffffffffffffffffffff82166116ac576040517f08c379a000000000000000000000000000000000000000000000000000000000815260206004820152602a60248201527f4552433732313a2062616c616e636520717565727920666f7220746865207a6560448201527f726f20616464726573730000000000000000000000000000000000000000000060648201526084016106aa565b5073ffffffffffffffffffffffffffffffffffffffff1660009081526003602052604090205490565b60065473ffffffffffffffffffffffffffffffffffffffff163314611756576040517f08c379a000000000000000000000000000000000000000000000000000000000815260206004820181905260248201527f4f776e61626c653a2063616c6c6572206973206e6f7420746865206f776e657260448201526064016106aa565b6117606000612362565b565b60606001805461057a90613070565b662386f26fc10000341461178457600080fd5b600060108080549050836040516020016117d59181526040602082018190526005908201527f6669727374000000000000000000000000000000000000000000000000000000606082015260800190565b6040516020818303038152906040528051906020012060001c6117f89190613359565b81548110611808576118086130c4565b90600052602060002001805461181d90613070565b80601f016020809104026020016040519081016040528092919081815260200182805461184990613070565b80156118965780601f1061186b57610100808354040283529160200191611896565b820191906000526020600020905b81548152906001019060200180831161187957829003601f168201915b50505050509050600060118080549050846040516020016118ee9181526040602082018190526004908201527f6c61737400000000000000000000000000000000000000000000000000000000606082015260800190565b6040516020818303038152906040528051906020012060001c6119119190613359565b81548110611921576119216130c4565b90600052602060002001805461193690613070565b80601f016020809104026020016040519081016040528092919081815260200182805461196290613070565b80156119af5780601f10611984576101008083540402835291602001916119af565b820191906000526020600020905b81548152906001019060200180831161199257829003601f168201915b505050600086815260126020908152604090912086519495506119dd94600190910193509086019150612b7b565b5060008381526012602090815260409091208251611a0392600290920191840190612b7b565b506000611a11600685613359565b600085815260126020526040812080547fffffffffffffffffffffffffffffffffffffffffffffffffffffffffffffff0016921592831790559091505b6007811015611ac15760408051602080820188905281830184905282518083038401815260609092019092528051910120611a8b90600b90613359565b60008681526012602052604090206003018260078110611aad57611aad6130c4565b015580611ab98161339c565b915050611a4e565b5060005b6007811015611b505760078160078110611ae157611ae16130c4565b015460408051602081018890529081018390526060016040516020818303038152906040528051906020012060001c611b1a9190613359565b6000868152601260205260409020600a018260078110611b3c57611b3c6130c4565b015580611b488161339c565b915050611ac5565b50611b5b33856123d9565b7f9efe119988399e2c942078a1de4f39276ed8c8580af9bb2a3417096a241bd49784848484601260008a8152602001908152602001600020600301604051611ba79594939291906133d5565b60405180910390a150505050565b611bc033838361259b565b5050565b611bce3383611f8b565b611c5a576040517f08c379a000000000000000000000000000000000000000000000000000000000815260206004820152603160248201527f4552433732313a207472616e736665722063616c6c6572206973206e6f74206f60448201527f776e6572206e6f7220617070726f76656400000000000000000000000000000060648201526084016106aa565b611c66848484846126c9565b50505050565b60008181526002602052604090205460609073ffffffffffffffffffffffffffffffffffffffff16611d20576040517f08c379a000000000000000000000000000000000000000000000000000000000815260206004820152602f60248201527f4552433732314d657461646174613a2055524920717565727920666f72206e6f60448201527f6e6578697374656e7420746f6b656e000000000000000000000000000000000060648201526084016106aa565b6000611d2a61276c565b90506000815111611d4a5760405180602001604052806000815250611d65565b80611d548461277b565b6040516020016114b1929190613443565b9392505050565b611d74612bef565b60008281526012602052604090819020815160e0810190925260030160078282826020028201915b815481526020019060010190808311611d9c5750505050509050919050565b60065473ffffffffffffffffffffffffffffffffffffffff163314611e3c576040517f08c379a000000000000000000000000000000000000000000000000000000000815260206004820181905260248201527f4f776e61626c653a2063616c6c6572206973206e6f7420746865206f776e657260448201526064016106aa565b73ffffffffffffffffffffffffffffffffffffffff8116611edf576040517f08c379a000000000000000000000000000000000000000000000000000000000815260206004820152602660248201527f4f776e61626c653a206e6577206f776e657220697320746865207a65726f206160448201527f646472657373000000000000000000000000000000000000000000000000000060648201526084016106aa565b611ee881612362565b50565b600081815260046020526040902080547fffffffffffffffffffffffff00000000000000000000000000000000000000001673ffffffffffffffffffffffffffffffffffffffff84169081179091558190611f4582611555565b73ffffffffffffffffffffffffffffffffffffffff167f8c5be1e5ebec7d5bd14f71427d1e84f3dd0314c0f7b2291e5b200ac8c7c3b92560405160405180910390a45050565b60008181526002602052604081205473ffffffffffffffffffffffffffffffffffffffff1661203c576040517f08c379a000000000000000000000000000000000000000000000000000000000815260206004820152602c60248201527f4552433732313a206f70657261746f7220717565727920666f72206e6f6e657860448201527f697374656e7420746f6b656e000000000000000000000000000000000000000060648201526084016106aa565b600061204783611555565b90508073ffffffffffffffffffffffffffffffffffffffff168473ffffffffffffffffffffffffffffffffffffffff1614806120b657508373ffffffffffffffffffffffffffffffffffffffff1661209e846105fd565b73ffffffffffffffffffffffffffffffffffffffff16145b806120f3575073ffffffffffffffffffffffffffffffffffffffff80821660009081526005602090815260408083209388168352929052205460ff165b949350505050565b8273ffffffffffffffffffffffffffffffffffffffff1661211b82611555565b73ffffffffffffffffffffffffffffffffffffffff16146121be576040517f08c379a000000000000000000000000000000000000000000000000000000000815260206004820152602960248201527f4552433732313a207472616e73666572206f6620746f6b656e2074686174206960448201527f73206e6f74206f776e000000000000000000000000000000000000000000000060648201526084016106aa565b73ffffffffffffffffffffffffffffffffffffffff8216612260576040517f08c379a0000000000000000000000000000000000000000000000000000000008152602060048201526024808201527f4552433732313a207472616e7366657220746f20746865207a65726f2061646460448201527f726573730000000000000000000000000000000000000000000000000000000060648201526084016106aa565b61226b600082611eeb565b73ffffffffffffffffffffffffffffffffffffffff831660009081526003602052604081208054600192906122a1908490613472565b909155505073ffffffffffffffffffffffffffffffffffffffff821660009081526003602052604081208054600192906122dc908490613489565b909155505060008181526002602052604080822080547fffffffffffffffffffffffff00000000000000000000000000000000000000001673ffffffffffffffffffffffffffffffffffffffff86811691821790925591518493918716917fddf252ad1be2c89b69c2b068fc378daa952ba7f163c4a11628f55a4df523b3ef91a4505050565b6006805473ffffffffffffffffffffffffffffffffffffffff8381167fffffffffffffffffffffffff0000000000000000000000000000000000000000831681179093556040519116919082907f8be0079c531659141344cd1fd0a4f28419497f9722a3daafe3b4186f6b6457e090600090a35050565b73ffffffffffffffffffffffffffffffffffffffff8216612456576040517f08c379a000000000000000000000000000000000000000000000000000000000815260206004820181905260248201527f4552433732313a206d696e7420746f20746865207a65726f206164647265737360448201526064016106aa565b60008181526002602052604090205473ffffffffffffffffffffffffffffffffffffffff16156124e2576040517f08c379a000000000000000000000000000000000000000000000000000000000815260206004820152601c60248201527f4552433732313a20746f6b656e20616c7265616479206d696e7465640000000060448201526064016106aa565b73ffffffffffffffffffffffffffffffffffffffff82166000908152600360205260408120805460019290612518908490613489565b909155505060008181526002602052604080822080547fffffffffffffffffffffffff00000000000000000000000000000000000000001673ffffffffffffffffffffffffffffffffffffffff861690811790915590518392907fddf252ad1be2c89b69c2b068fc378daa952ba7f163c4a11628f55a4df523b3ef908290a45050565b8173ffffffffffffffffffffffffffffffffffffffff168373ffffffffffffffffffffffffffffffffffffffff161415612631576040517f08c379a000000000000000000000000000000000000000000000000000000000815260206004820152601960248201527f4552433732313a20617070726f766520746f2063616c6c65720000000000000060448201526064016106aa565b73ffffffffffffffffffffffffffffffffffffffff83811660008181526005602090815260408083209487168084529482529182902080547fffffffffffffffffffffffffffffffffffffffffffffffffffffffffffffff001686151590811790915591519182527f17307eab39ab6107e8899845ad3d59bd9653f200f220920489ca2b5937696c31910160405180910390a3505050565b6126d48484846120fb565b6126e0848484846128ad565b611c66576040517f08c379a000000000000000000000000000000000000000000000000000000000815260206004820152603260248201527f4552433732313a207472616e7366657220746f206e6f6e20455243373231526560448201527f63656976657220696d706c656d656e746572000000000000000000000000000060648201526084016106aa565b6060600f805461057a90613070565b6060816127bb57505060408051808201909152600181527f3000000000000000000000000000000000000000000000000000000000000000602082015290565b8160005b81156127e557806127cf8161339c565b91506127de9050600a836134a1565b91506127bf565b60008167ffffffffffffffff81111561280057612800612e9d565b6040519080825280601f01601f19166020018201604052801561282a576020820181803683370190505b5090505b84156120f35761283f600183613472565b915061284c600a86613359565b612857906030613489565b60f81b81838151811061286c5761286c6130c4565b60200101907effffffffffffffffffffffffffffffffffffffffffffffffffffffffffffff1916908160001a9053506128a6600a866134a1565b945061282e565b600073ffffffffffffffffffffffffffffffffffffffff84163b15612aa1576040517f150b7a0200000000000000000000000000000000000000000000000000000000815273ffffffffffffffffffffffffffffffffffffffff85169063150b7a02906129249033908990889088906004016134b5565b602060405180830381600087803b15801561293e57600080fd5b505af192505050801561298c575060408051601f3d9081017fffffffffffffffffffffffffffffffffffffffffffffffffffffffffffffffe0168201909252612989918101906134fe565b60015b612a56573d8080156129ba576040519150601f19603f3d011682016040523d82523d6000602084013e6129bf565b606091505b508051612a4e576040517f08c379a000000000000000000000000000000000000000000000000000000000815260206004820152603260248201527f4552433732313a207472616e7366657220746f206e6f6e20455243373231526560448201527f63656976657220696d706c656d656e746572000000000000000000000000000060648201526084016106aa565b805181602001fd5b7fffffffff00000000000000000000000000000000000000000000000000000000167f150b7a02000000000000000000000000000000000000000000000000000000001490506120f3565b506001949350505050565b8260078101928215612ada579160200282015b82811115612ada578235825591602001919060010190612abf565b50612ae6929150612c0d565b5090565b828054612af690613070565b90600052602060002090601f016020900481019282612b185760008555612ada565b82601f10612b4f578280017fffffffffffffffffffffffffffffffffffffffffffffffffffffffffffffff00823516178555612ada565b82800160010185558215612ada5791820182811115612ada578235825591602001919060010190612abf565b828054612b8790613070565b90600052602060002090601f016020900481019282612ba95760008555612ada565b82601f10612bc257805160ff1916838001178555612ada565b82800160010185558215612ada579182015b82811115612ada578251825591602001919060010190612bd4565b6040518060e001604052806007906020820280368337509192915050565b5b80821115612ae65760008155600101612c0e565b7fffffffff0000000000000000000000000000000000000000000000000000000081168114611ee857600080fd5b600060208284031215612c6257600080fd5b8135611d6581612c22565b60005b83811015612c88578181015183820152602001612c70565b83811115611c665750506000910152565b60008151808452612cb1816020860160208601612c6d565b601f017fffffffffffffffffffffffffffffffffffffffffffffffffffffffffffffffe0169290920160200192915050565b602081526000611d656020830184612c99565b600060208284031215612d0857600080fd5b5035919050565b803573ffffffffffffffffffffffffffffffffffffffff81168114612d3357600080fd5b919050565b60008060408385031215612d4b57600080fd5b612d5483612d0f565b946020939093013593505050565b600080610100808486031215612d7757600080fd5b83359250848185011115612d8a57600080fd5b506020830190509250929050565b600080600060608486031215612dad57600080fd5b612db684612d0f565b9250612dc460208501612d0f565b9150604084013590509250925092565b60008060208385031215612de757600080fd5b823567ffffffffffffffff80821115612dff57600080fd5b818501915085601f830112612e1357600080fd5b813581811115612e2257600080fd5b866020828501011115612e3457600080fd5b60209290920196919550909350505050565b600060208284031215612e5857600080fd5b611d6582612d0f565b60008060408385031215612e7457600080fd5b612e7d83612d0f565b915060208301358015158114612e9257600080fd5b809150509250929050565b7f4e487b7100000000000000000000000000000000000000000000000000000000600052604160045260246000fd5b604051601f82017fffffffffffffffffffffffffffffffffffffffffffffffffffffffffffffffe016810167ffffffffffffffff81118282101715612f1357612f13612e9d565b604052919050565b600067ffffffffffffffff821115612f3557612f35612e9d565b50601f017fffffffffffffffffffffffffffffffffffffffffffffffffffffffffffffffe01660200190565b60008060008060808587031215612f7757600080fd5b612f8085612d0f565b9350612f8e60208601612d0f565b925060408501359150606085013567ffffffffffffffff811115612fb157600080fd5b8501601f81018713612fc257600080fd5b8035612fd5612fd082612f1b565b612ecc565b818152886020838501011115612fea57600080fd5b8160208401602083013760006020838301015280935050505092959194509250565b60e08101818360005b6007811015613034578151835260209283019290910190600101613015565b50505092915050565b6000806040838503121561305057600080fd5b61305983612d0f565b915061306760208401612d0f565b90509250929050565b600181811c9082168061308457607f821691505b602082108114156130be577f4e487b7100000000000000000000000000000000000000000000000000000000600052602260045260246000fd5b50919050565b7f4e487b7100000000000000000000000000000000000000000000000000000000600052603260045260246000fd5b60006020828403121561310557600080fd5b815167ffffffffffffffff81111561311c57600080fd5b8201601f8101841361312d57600080fd5b805161313b612fd082612f1b565b81815285602083850101111561315057600080fd5b613161826020830160208601612c6d565b95945050505050565b7f3c73766720786d6c6e733d22687474703a2f2f7777772e77332e6f72672f32308152600060207f30302f7376672220786d6c6e733a786c696e6b3d22687474703a2f2f7777772e818401527f77332e6f72672f313939392f786c696e6b222076696577426f783d223020302060408401527f32313020323937223e0000000000000000000000000000000000000000000000606084015287516132148160698601848c01612c6d565b87519084019061322a8160698401858c01612c6d565b875191019061323f8160698401858b01612c6d565b86519101606901906132548183858a01612c6d565b85519101906132668183858901612c6d565b0198975050505050505050565b6000885160206132868285838e01612c6d565b8951918401916132998184848e01612c6d565b89519201916132ab8184848d01612c6d565b88519201916132bd8184848c01612c6d565b87519201916132cf8184848b01612c6d565b86519201916132e18184848a01612c6d565b85519201916132f38184848901612c6d565b7f3c2f7376673e00000000000000000000000000000000000000000000000000009201918252506006019998505050505050505050565b7f4e487b7100000000000000000000000000000000000000000000000000000000600052601260045260246000fd5b6000826133685761336861332a565b500690565b7f4e487b7100000000000000000000000000000000000000000000000000000000600052601160045260246000fd5b60007fffffffffffffffffffffffffffffffffffffffffffffffffffffffffffffffff8214156133ce576133ce61336d565b5060010190565b6000610160878352602081818501526133f082850189612c99565b915083820360408501526134048288612c99565b925085151560608501526080840191508460005b600781101561343557815484529282019260019182019101613418565b505050509695505050505050565b60008351613455818460208801612c6d565b835190830190613469818360208801612c6d565b01949350505050565b6000828210156134845761348461336d565b500390565b6000821982111561349c5761349c61336d565b500190565b6000826134b0576134b061332a565b500490565b600073ffffffffffffffffffffffffffffffffffffffff8087168352808616602084015250836040830152608060608301526134f46080830184612c99565b9695505050505050565b60006020828403121561351057600080fd5b8151611d6581612c2256fea26469706673582212208885d8cf6225be4946e6ece7359ecd1bce03f7ae147ccc3110189093d47f819e64736f6c63430008090033",
  "devdoc": {
    "kind": "dev",
    "methods": {
      "approve(address,uint256)": {
        "details": "See {IERC721-approve}."
      },
      "balanceOf(address)": {
        "details": "See {IERC721-balanceOf}."
      },
      "getApproved(uint256)": {
        "details": "See {IERC721-getApproved}."
      },
      "isApprovedForAll(address,address)": {
        "details": "See {IERC721-isApprovedForAll}."
      },
      "name()": {
        "details": "See {IERC721Metadata-name}."
      },
      "owner()": {
        "details": "Returns the address of the current owner."
      },
      "ownerOf(uint256)": {
        "details": "See {IERC721-ownerOf}."
      },
      "renounceOwnership()": {
        "details": "Leaves the contract without owner. It will not be possible to call `onlyOwner` functions anymore. Can only be called by the current owner. NOTE: Renouncing ownership will leave the contract without an owner, thereby removing any functionality that is only available to the owner."
      },
      "safeTransferFrom(address,address,uint256)": {
        "details": "See {IERC721-safeTransferFrom}."
      },
      "safeTransferFrom(address,address,uint256,bytes)": {
        "details": "See {IERC721-safeTransferFrom}."
      },
      "setApprovalForAll(address,bool)": {
        "details": "See {IERC721-setApprovalForAll}."
      },
      "supportsInterface(bytes4)": {
        "details": "See {IERC165-supportsInterface}."
      },
      "symbol()": {
        "details": "See {IERC721Metadata-symbol}."
      },
      "tokenURI(uint256)": {
        "details": "See {IERC721Metadata-tokenURI}."
      },
      "transferFrom(address,address,uint256)": {
        "details": "See {IERC721-transferFrom}."
      },
      "transferOwnership(address)": {
        "details": "Transfers ownership of the contract to a new account (`newOwner`). Can only be called by the current owner."
      }
    },
    "version": 1
  },
  "userdoc": {
    "kind": "user",
    "methods": {},
    "version": 1
  },
  "storageLayout": {
    "storage": [
      {
        "astId": 130,
        "contract": "src/FootiumLitePlayers/FootiumLitePlayers.sol:FootiumLitePlayers",
        "label": "_name",
        "offset": 0,
        "slot": "0",
        "type": "t_string_storage"
      },
      {
        "astId": 132,
        "contract": "src/FootiumLitePlayers/FootiumLitePlayers.sol:FootiumLitePlayers",
        "label": "_symbol",
        "offset": 0,
        "slot": "1",
        "type": "t_string_storage"
      },
      {
        "astId": 136,
        "contract": "src/FootiumLitePlayers/FootiumLitePlayers.sol:FootiumLitePlayers",
        "label": "_owners",
        "offset": 0,
        "slot": "2",
        "type": "t_mapping(t_uint256,t_address)"
      },
      {
        "astId": 140,
        "contract": "src/FootiumLitePlayers/FootiumLitePlayers.sol:FootiumLitePlayers",
        "label": "_balances",
        "offset": 0,
        "slot": "3",
        "type": "t_mapping(t_address,t_uint256)"
      },
      {
        "astId": 144,
        "contract": "src/FootiumLitePlayers/FootiumLitePlayers.sol:FootiumLitePlayers",
        "label": "_tokenApprovals",
        "offset": 0,
        "slot": "4",
        "type": "t_mapping(t_uint256,t_address)"
      },
      {
        "astId": 150,
        "contract": "src/FootiumLitePlayers/FootiumLitePlayers.sol:FootiumLitePlayers",
        "label": "_operatorApprovals",
        "offset": 0,
        "slot": "5",
        "type": "t_mapping(t_address,t_mapping(t_address,t_bool))"
      },
      {
        "astId": 7,
        "contract": "src/FootiumLitePlayers/FootiumLitePlayers.sol:FootiumLitePlayers",
        "label": "_owner",
        "offset": 0,
        "slot": "6",
        "type": "t_address"
      },
      {
        "astId": 1693,
        "contract": "src/FootiumLitePlayers/FootiumLitePlayers.sol:FootiumLitePlayers",
        "label": "maxImageTraits",
        "offset": 0,
        "slot": "7",
        "type": "t_array(t_uint256)7_storage"
      },
      {
        "astId": 1711,
        "contract": "src/FootiumLitePlayers/FootiumLitePlayers.sol:FootiumLitePlayers",
        "label": "svgs",
        "offset": 0,
        "slot": "14",
        "type": "t_contract(Svgs)2164"
      },
      {
        "astId": 1713,
        "contract": "src/FootiumLitePlayers/FootiumLitePlayers.sol:FootiumLitePlayers",
        "label": "baseTokenURI",
        "offset": 0,
        "slot": "15",
        "type": "t_string_storage"
      },
      {
        "astId": 1716,
        "contract": "src/FootiumLitePlayers/FootiumLitePlayers.sol:FootiumLitePlayers",
        "label": "firstNames",
        "offset": 0,
        "slot": "16",
        "type": "t_array(t_string_storage)dyn_storage"
      },
      {
        "astId": 1719,
        "contract": "src/FootiumLitePlayers/FootiumLitePlayers.sol:FootiumLitePlayers",
        "label": "lastNames",
        "offset": 0,
        "slot": "17",
        "type": "t_array(t_string_storage)dyn_storage"
      },
      {
        "astId": 1724,
        "contract": "src/FootiumLitePlayers/FootiumLitePlayers.sol:FootiumLitePlayers",
        "label": "playersStats",
        "offset": 0,
        "slot": "18",
        "type": "t_mapping(t_uint256,t_struct(Player)1708_storage)"
      }
    ],
    "types": {
      "t_address": {
        "encoding": "inplace",
        "label": "address",
        "numberOfBytes": "20"
      },
      "t_array(t_string_storage)dyn_storage": {
        "base": "t_string_storage",
        "encoding": "dynamic_array",
        "label": "string[]",
        "numberOfBytes": "32"
      },
      "t_array(t_uint256)7_storage": {
        "base": "t_uint256",
        "encoding": "inplace",
        "label": "uint256[7]",
        "numberOfBytes": "224"
      },
      "t_bool": {
        "encoding": "inplace",
        "label": "bool",
        "numberOfBytes": "1"
      },
      "t_contract(Svgs)2164": {
        "encoding": "inplace",
        "label": "contract Svgs",
        "numberOfBytes": "20"
      },
      "t_mapping(t_address,t_bool)": {
        "encoding": "mapping",
        "key": "t_address",
        "label": "mapping(address => bool)",
        "numberOfBytes": "32",
        "value": "t_bool"
      },
      "t_mapping(t_address,t_mapping(t_address,t_bool))": {
        "encoding": "mapping",
        "key": "t_address",
        "label": "mapping(address => mapping(address => bool))",
        "numberOfBytes": "32",
        "value": "t_mapping(t_address,t_bool)"
      },
      "t_mapping(t_address,t_uint256)": {
        "encoding": "mapping",
        "key": "t_address",
        "label": "mapping(address => uint256)",
        "numberOfBytes": "32",
        "value": "t_uint256"
      },
      "t_mapping(t_uint256,t_address)": {
        "encoding": "mapping",
        "key": "t_uint256",
        "label": "mapping(uint256 => address)",
        "numberOfBytes": "32",
        "value": "t_address"
      },
      "t_mapping(t_uint256,t_struct(Player)1708_storage)": {
        "encoding": "mapping",
        "key": "t_uint256",
        "label": "mapping(uint256 => struct FootiumLitePlayers.Player)",
        "numberOfBytes": "32",
        "value": "t_struct(Player)1708_storage"
      },
      "t_string_storage": {
        "encoding": "bytes",
        "label": "string",
        "numberOfBytes": "32"
      },
      "t_struct(Player)1708_storage": {
        "encoding": "inplace",
        "label": "struct FootiumLitePlayers.Player",
        "members": [
          {
            "astId": 1695,
            "contract": "src/FootiumLitePlayers/FootiumLitePlayers.sol:FootiumLitePlayers",
            "label": "keeper",
            "offset": 0,
            "slot": "0",
            "type": "t_bool"
          },
          {
            "astId": 1697,
            "contract": "src/FootiumLitePlayers/FootiumLitePlayers.sol:FootiumLitePlayers",
            "label": "firstName",
            "offset": 0,
            "slot": "1",
            "type": "t_string_storage"
          },
          {
            "astId": 1699,
            "contract": "src/FootiumLitePlayers/FootiumLitePlayers.sol:FootiumLitePlayers",
            "label": "lastName",
            "offset": 0,
            "slot": "2",
            "type": "t_string_storage"
          },
          {
            "astId": 1703,
            "contract": "src/FootiumLitePlayers/FootiumLitePlayers.sol:FootiumLitePlayers",
            "label": "numericTraits",
            "offset": 0,
            "slot": "3",
            "type": "t_array(t_uint256)7_storage"
          },
          {
            "astId": 1707,
            "contract": "src/FootiumLitePlayers/FootiumLitePlayers.sol:FootiumLitePlayers",
            "label": "imageTraits",
            "offset": 0,
            "slot": "10",
            "type": "t_array(t_uint256)7_storage"
          }
        ],
        "numberOfBytes": "544"
      },
      "t_uint256": {
        "encoding": "inplace",
        "label": "uint256",
        "numberOfBytes": "32"
      }
    }
  }
}