{
  "address": "0x832f7461Fd2FaBd90D6eCA465FbB9F4914DBFb6e",
  "abi": [
    {
      "inputs": [
        {
          "internalType": "contract Svgs",
          "name": "_svgs",
          "type": "address"
        },
        {
          "internalType": "string[]",
          "name": "_firstNames",
          "type": "string[]"
        },
        {
          "internalType": "string[]",
          "name": "_lastNames",
          "type": "string[]"
        }
      ],
      "stateMutability": "nonpayable",
      "type": "constructor"
    },
    {
      "anonymous": false,
      "inputs": [
        {
          "indexed": true,
          "internalType": "address",
          "name": "owner",
          "type": "address"
        },
        {
          "indexed": true,
          "internalType": "address",
          "name": "approved",
          "type": "address"
        },
        {
          "indexed": true,
          "internalType": "uint256",
          "name": "tokenId",
          "type": "uint256"
        }
      ],
      "name": "Approval",
      "type": "event"
    },
    {
      "anonymous": false,
      "inputs": [
        {
          "indexed": true,
          "internalType": "address",
          "name": "owner",
          "type": "address"
        },
        {
          "indexed": true,
          "internalType": "address",
          "name": "operator",
          "type": "address"
        },
        {
          "indexed": false,
          "internalType": "bool",
          "name": "approved",
          "type": "bool"
        }
      ],
      "name": "ApprovalForAll",
      "type": "event"
    },
    {
      "anonymous": false,
      "inputs": [
        {
          "indexed": true,
          "internalType": "address",
          "name": "previousOwner",
          "type": "address"
        },
        {
          "indexed": true,
          "internalType": "address",
          "name": "newOwner",
          "type": "address"
        }
      ],
      "name": "OwnershipTransferred",
      "type": "event"
    },
    {
      "anonymous": false,
      "inputs": [
        {
          "indexed": false,
          "internalType": "uint256",
          "name": "tokenId",
          "type": "uint256"
        },
        {
          "indexed": false,
          "internalType": "bool",
          "name": "goalKeeper",
          "type": "bool"
        },
        {
          "indexed": false,
          "internalType": "uint256[7]",
          "name": "traits",
          "type": "uint256[7]"
        }
      ],
      "name": "PlayerSigned",
      "type": "event"
    },
    {
      "anonymous": false,
      "inputs": [
        {
          "indexed": true,
          "internalType": "address",
          "name": "from",
          "type": "address"
        },
        {
          "indexed": true,
          "internalType": "address",
          "name": "to",
          "type": "address"
        },
        {
          "indexed": true,
          "internalType": "uint256",
          "name": "tokenId",
          "type": "uint256"
        }
      ],
      "name": "Transfer",
      "type": "event"
    },
    {
      "inputs": [
        {
          "internalType": "address",
          "name": "to",
          "type": "address"
        },
        {
          "internalType": "uint256",
          "name": "tokenId",
          "type": "uint256"
        }
      ],
      "name": "approve",
      "outputs": [],
      "stateMutability": "nonpayable",
      "type": "function"
    },
    {
      "inputs": [
        {
          "internalType": "address",
          "name": "owner",
          "type": "address"
        }
      ],
      "name": "balanceOf",
      "outputs": [
        {
          "internalType": "uint256",
          "name": "",
          "type": "uint256"
        }
      ],
      "stateMutability": "view",
      "type": "function"
    },
    {
      "inputs": [
        {
          "internalType": "uint256",
          "name": "tokenId",
          "type": "uint256"
        }
      ],
      "name": "getApproved",
      "outputs": [
        {
          "internalType": "address",
          "name": "",
          "type": "address"
        }
      ],
      "stateMutability": "view",
      "type": "function"
    },
    {
      "inputs": [
        {
          "internalType": "uint256",
          "name": "tokenId",
          "type": "uint256"
        }
      ],
      "name": "getPlayerSvg",
      "outputs": [
        {
          "internalType": "string",
          "name": "",
          "type": "string"
        }
      ],
      "stateMutability": "view",
      "type": "function"
    },
    {
      "inputs": [
        {
          "internalType": "uint256",
          "name": "tokenId",
          "type": "uint256"
        }
      ],
      "name": "getTraits",
      "outputs": [
        {
          "internalType": "uint256[7]",
          "name": "",
          "type": "uint256[7]"
        }
      ],
      "stateMutability": "view",
      "type": "function"
    },
    {
      "inputs": [
        {
          "internalType": "address",
          "name": "owner",
          "type": "address"
        },
        {
          "internalType": "address",
          "name": "operator",
          "type": "address"
        }
      ],
      "name": "isApprovedForAll",
      "outputs": [
        {
          "internalType": "bool",
          "name": "",
          "type": "bool"
        }
      ],
      "stateMutability": "view",
      "type": "function"
    },
    {
      "inputs": [
        {
          "internalType": "uint256",
          "name": "tokenId",
          "type": "uint256"
        }
      ],
      "name": "mint",
      "outputs": [],
      "stateMutability": "payable",
      "type": "function"
    },
    {
      "inputs": [],
      "name": "name",
      "outputs": [
        {
          "internalType": "string",
          "name": "",
          "type": "string"
        }
      ],
      "stateMutability": "view",
      "type": "function"
    },
    {
      "inputs": [],
      "name": "owner",
      "outputs": [
        {
          "internalType": "address",
          "name": "",
          "type": "address"
        }
      ],
      "stateMutability": "view",
      "type": "function"
    },
    {
      "inputs": [
        {
          "internalType": "uint256",
          "name": "tokenId",
          "type": "uint256"
        }
      ],
      "name": "ownerOf",
      "outputs": [
        {
          "internalType": "address",
          "name": "",
          "type": "address"
        }
      ],
      "stateMutability": "view",
      "type": "function"
    },
    {
      "inputs": [],
      "name": "renounceOwnership",
      "outputs": [],
      "stateMutability": "nonpayable",
      "type": "function"
    },
    {
      "inputs": [
        {
          "internalType": "address",
          "name": "from",
          "type": "address"
        },
        {
          "internalType": "address",
          "name": "to",
          "type": "address"
        },
        {
          "internalType": "uint256",
          "name": "tokenId",
          "type": "uint256"
        }
      ],
      "name": "safeTransferFrom",
      "outputs": [],
      "stateMutability": "nonpayable",
      "type": "function"
    },
    {
      "inputs": [
        {
          "internalType": "address",
          "name": "from",
          "type": "address"
        },
        {
          "internalType": "address",
          "name": "to",
          "type": "address"
        },
        {
          "internalType": "uint256",
          "name": "tokenId",
          "type": "uint256"
        },
        {
          "internalType": "bytes",
          "name": "_data",
          "type": "bytes"
        }
      ],
      "name": "safeTransferFrom",
      "outputs": [],
      "stateMutability": "nonpayable",
      "type": "function"
    },
    {
      "inputs": [
        {
          "internalType": "address",
          "name": "operator",
          "type": "address"
        },
        {
          "internalType": "bool",
          "name": "approved",
          "type": "bool"
        }
      ],
      "name": "setApprovalForAll",
      "outputs": [],
      "stateMutability": "nonpayable",
      "type": "function"
    },
    {
      "inputs": [
        {
          "internalType": "bytes4",
          "name": "interfaceId",
          "type": "bytes4"
        }
      ],
      "name": "supportsInterface",
      "outputs": [
        {
          "internalType": "bool",
          "name": "",
          "type": "bool"
        }
      ],
      "stateMutability": "view",
      "type": "function"
    },
    {
      "inputs": [],
      "name": "symbol",
      "outputs": [
        {
          "internalType": "string",
          "name": "",
          "type": "string"
        }
      ],
      "stateMutability": "view",
      "type": "function"
    },
    {
      "inputs": [
        {
          "internalType": "uint256",
          "name": "tokenId",
          "type": "uint256"
        }
      ],
      "name": "tokenURI",
      "outputs": [
        {
          "internalType": "string",
          "name": "",
          "type": "string"
        }
      ],
      "stateMutability": "view",
      "type": "function"
    },
    {
      "inputs": [
        {
          "internalType": "address",
          "name": "from",
          "type": "address"
        },
        {
          "internalType": "address",
          "name": "to",
          "type": "address"
        },
        {
          "internalType": "uint256",
          "name": "tokenId",
          "type": "uint256"
        }
      ],
      "name": "transferFrom",
      "outputs": [],
      "stateMutability": "nonpayable",
      "type": "function"
    },
    {
      "inputs": [
        {
          "internalType": "address",
          "name": "newOwner",
          "type": "address"
        }
      ],
      "name": "transferOwnership",
      "outputs": [],
      "stateMutability": "nonpayable",
      "type": "function"
    },
    {
      "inputs": [
        {
          "internalType": "uint256",
          "name": "tokenId",
          "type": "uint256"
        },
        {
          "internalType": "uint256[7]",
          "name": "newTraits",
          "type": "uint256[7]"
        }
      ],
      "name": "updateNumericTraits",
      "outputs": [],
      "stateMutability": "nonpayable",
      "type": "function"
    }
  ],
  "transactionHash": "0x024be6c8dc8978696cb5c24a22cfa46514ef21daa1f12d8c18c5ce6e01c98c5a",
  "args": [
    "0x8d5Ad3C14AFf68cf121aEB316232771443834A84",
    [
      "Fraser",
      "George",
      "Jordan",
      "Sam"
    ],
    [
      "Benton",
      "Scott",
      "Lord",
      "Jackson"
    ]
  ],
  "numDeployments": 1,
  "solcInputHash": "60383510c8574857e1f67441cf4292bd",
  "bytecode": "0x61016060405260056080908152600a60a0819052600860c05260e0819052600961010052600361012052610140526200003c90600790816200019b565b503480156200004a57600080fd5b50604051620037cf380380620037cf8339810160408190526200006d91620004a9565b6040805180820182526012815271466f6f7469756d4c697465506c617965727360701b6020808301918252835180850190945260038452620464c560ec1b908401528151919291620000c291600091620001e3565b508051620000d8906001906020840190620001e3565b505050620000f5620000ef6200014560201b60201c565b62000149565b600e80546001600160a01b0319166001600160a01b03851617905581516200012590600f90602085019062000260565b5080516200013b90601090602084019062000260565b5050505062000570565b3390565b600680546001600160a01b038381166001600160a01b0319831681179093556040519116919082907f8be0079c531659141344cd1fd0a4f28419497f9722a3daafe3b4186f6b6457e090600090a35050565b8260078101928215620001d1579160200282015b82811115620001d1578251829060ff16905591602001919060010190620001af565b50620001df929150620002c0565b5090565b828054620001f19062000533565b90600052602060002090601f016020900481019282620002155760008555620001d1565b82601f106200023057805160ff1916838001178555620001d1565b82800160010185558215620001d1579182015b82811115620001d157825182559160200191906001019062000243565b828054828255906000526020600020908101928215620002b2579160200282015b82811115620002b25782518051620002a1918491602090910190620001e3565b509160200191906001019062000281565b50620001df929150620002d7565b5b80821115620001df5760008155600101620002c1565b80821115620001df576000620002ee8282620002f8565b50600101620002d7565b508054620003069062000533565b6000825580601f1062000317575050565b601f016020900490600052602060002090810190620003379190620002c0565b50565b634e487b7160e01b600052604160045260246000fd5b604051601f8201601f191681016001600160401b03811182821017156200037b576200037b6200033a565b604052919050565b6000601f83818401126200039657600080fd5b825160206001600160401b0380831115620003b557620003b56200033a565b8260051b620003c683820162000350565b9384528681018301938381019089861115620003e157600080fd5b84890192505b858310156200049c57825184811115620004015760008081fd5b8901603f81018b13620004145760008081fd5b85810151858111156200042b576200042b6200033a565b6200043e818a01601f1916880162000350565b81815260408d81848601011115620004565760008081fd5b60005b8381101562000476578481018201518382018b0152890162000459565b83811115620004885760008a85850101525b5050845250509184019190840190620003e7565b9998505050505050505050565b600080600060608486031215620004bf57600080fd5b83516001600160a01b0381168114620004d757600080fd5b60208501519093506001600160401b0380821115620004f557600080fd5b620005038783880162000383565b935060408601519150808211156200051a57600080fd5b50620005298682870162000383565b9150509250925092565b600181811c908216806200054857607f821691505b602082108114156200056a57634e487b7160e01b600052602260045260246000fd5b50919050565b61324f80620005806000396000f3fe60806040526004361061015f5760003560e01c8063715018a6116100c0578063b88d4fde11610074578063e1dc076111610059578063e1dc0761146103b8578063e985e9c5146103e5578063f2fde38b1461043b57600080fd5b8063b88d4fde14610378578063c87b56dd1461039857600080fd5b806395d89b41116100a557806395d89b4114610330578063a0712d6814610345578063a22cb4651461035857600080fd5b8063715018a6146102f05780638da5cb5b1461030557600080fd5b806323b872dd116101175780634c776b57116100fc5780634c776b57146102825780636352211e146102a257806370a08231146102c257600080fd5b806323b872dd1461024257806342842e0e1461026257600080fd5b8063081812fc11610148578063081812fc146101bb578063095ea7b31461020057806318439bc81461022257600080fd5b806301ffc9a71461016457806306fdde0314610199575b600080fd5b34801561017057600080fd5b5061018461017f3660046129e8565b61045b565b60405190151581526020015b60405180910390f35b3480156101a557600080fd5b506101ae610540565b6040516101909190612a7b565b3480156101c757600080fd5b506101db6101d6366004612a8e565b6105d2565b60405173ffffffffffffffffffffffffffffffffffffffff9091168152602001610190565b34801561020c57600080fd5b5061022061021b366004612ad0565b6106b1565b005b34801561022e57600080fd5b5061022061023d366004612afa565b61083e565b34801561024e57600080fd5b5061022061025d366004612b30565b6108dc565b34801561026e57600080fd5b5061022061027d366004612b30565b61097d565b34801561028e57600080fd5b506101ae61029d366004612a8e565b610998565b3480156102ae57600080fd5b506101db6102bd366004612a8e565b61149d565b3480156102ce57600080fd5b506102e26102dd366004612b6c565b61154f565b604051908152602001610190565b3480156102fc57600080fd5b5061022061161d565b34801561031157600080fd5b5060065473ffffffffffffffffffffffffffffffffffffffff166101db565b34801561033c57600080fd5b506101ae6116aa565b610220610353366004612a8e565b6116b9565b34801561036457600080fd5b50610220610373366004612b87565b6119d9565b34801561038457600080fd5b50610220610393366004612c87565b6119e8565b3480156103a457600080fd5b506101ae6103b3366004612a8e565b611a90565b3480156103c457600080fd5b506103d86103d3366004612a8e565b611b9d565b6040516101909190612d32565b3480156103f157600080fd5b50610184610400366004612d63565b73ffffffffffffffffffffffffffffffffffffffff918216600090815260056020908152604080832093909416825291909152205460ff1690565b34801561044757600080fd5b50610220610456366004612b6c565b611bec565b60007fffffffff0000000000000000000000000000000000000000000000000000000082167f80ac58cd0000000000000000000000000000000000000000000000000000000014806104ee57507fffffffff0000000000000000000000000000000000000000000000000000000082167f5b5e139f00000000000000000000000000000000000000000000000000000000145b8061053a57507f01ffc9a7000000000000000000000000000000000000000000000000000000007fffffffff000000000000000000000000000000000000000000000000000000008316145b92915050565b60606000805461054f90612d96565b80601f016020809104026020016040519081016040528092919081815260200182805461057b90612d96565b80156105c85780601f1061059d576101008083540402835291602001916105c8565b820191906000526020600020905b8154815290600101906020018083116105ab57829003601f168201915b5050505050905090565b60008181526002602052604081205473ffffffffffffffffffffffffffffffffffffffff16610688576040517f08c379a000000000000000000000000000000000000000000000000000000000815260206004820152602c60248201527f4552433732313a20617070726f76656420717565727920666f72206e6f6e657860448201527f697374656e7420746f6b656e000000000000000000000000000000000000000060648201526084015b60405180910390fd5b5060009081526004602052604090205473ffffffffffffffffffffffffffffffffffffffff1690565b60006106bc8261149d565b90508073ffffffffffffffffffffffffffffffffffffffff168373ffffffffffffffffffffffffffffffffffffffff16141561077a576040517f08c379a000000000000000000000000000000000000000000000000000000000815260206004820152602160248201527f4552433732313a20617070726f76616c20746f2063757272656e74206f776e6560448201527f7200000000000000000000000000000000000000000000000000000000000000606482015260840161067f565b3373ffffffffffffffffffffffffffffffffffffffff821614806107a357506107a38133610400565b61082f576040517f08c379a000000000000000000000000000000000000000000000000000000000815260206004820152603860248201527f4552433732313a20617070726f76652063616c6c6572206973206e6f74206f7760448201527f6e6572206e6f7220617070726f76656420666f7220616c6c0000000000000000606482015260840161067f565b6108398383611d1c565b505050565b60065473ffffffffffffffffffffffffffffffffffffffff1633146108bf576040517f08c379a000000000000000000000000000000000000000000000000000000000815260206004820181905260248201527f4f776e61626c653a2063616c6c6572206973206e6f7420746865206f776e6572604482015260640161067f565b6000828152601160205260409020610839906003018260076128ce565b6108e63382611dbc565b610972576040517f08c379a000000000000000000000000000000000000000000000000000000000815260206004820152603160248201527f4552433732313a207472616e736665722063616c6c6572206973206e6f74206f60448201527f776e6572206e6f7220617070726f766564000000000000000000000000000000606482015260840161067f565b610839838383611f2c565b610839838383604051806020016040528060008152506119e8565b600e54600082815260116020526040808220600a015490517ff300633d0000000000000000000000000000000000000000000000000000000081527f706f7365000000000000000000000000000000000000000000000000000000006004820152602481019190915260609273ffffffffffffffffffffffffffffffffffffffff169063f300633d9060440160006040518083038186803b158015610a3c57600080fd5b505afa158015610a50573d6000803e3d6000fd5b505050506040513d6000823e601f3d9081017fffffffffffffffffffffffffffffffffffffffffffffffffffffffffffffffe0168201604052610a969190810190612e19565b600e8054600086815260116020526040908190209092015491517ff300633d0000000000000000000000000000000000000000000000000000000081527f66616369616c00000000000000000000000000000000000000000000000000006004820152602481019290925273ffffffffffffffffffffffffffffffffffffffff169063f300633d9060440160006040518083038186803b158015610b3957600080fd5b505afa158015610b4d573d6000803e3d6000fd5b505050506040513d6000823e601f3d9081017fffffffffffffffffffffffffffffffffffffffffffffffffffffffffffffffe0168201604052610b939190810190612e19565b600e5460008681526011602052604090819020600b015490517ff300633d0000000000000000000000000000000000000000000000000000000081527f68616972000000000000000000000000000000000000000000000000000000006004820152602481019190915273ffffffffffffffffffffffffffffffffffffffff9091169063f300633d9060440160006040518083038186803b158015610c3757600080fd5b505afa158015610c4b573d6000803e3d6000fd5b505050506040513d6000823e601f3d9081017fffffffffffffffffffffffffffffffffffffffffffffffffffffffffffffffe0168201604052610c919190810190612e19565b600e5460008781526011602052604090819020600c015490517ff300633d0000000000000000000000000000000000000000000000000000000081527f62726f77000000000000000000000000000000000000000000000000000000006004820152602481019190915273ffffffffffffffffffffffffffffffffffffffff9091169063f300633d9060440160006040518083038186803b158015610d3557600080fd5b505afa158015610d49573d6000803e3d6000fd5b505050506040513d6000823e601f3d9081017fffffffffffffffffffffffffffffffffffffffffffffffffffffffffffffffe0168201604052610d8f9190810190612e19565b600e5460008881526011602052604090819020600d015490517ff300633d0000000000000000000000000000000000000000000000000000000081527f65796500000000000000000000000000000000000000000000000000000000006004820152602481019190915273ffffffffffffffffffffffffffffffffffffffff9091169063f300633d9060440160006040518083038186803b158015610e3357600080fd5b505afa158015610e47573d6000803e3d6000fd5b505050506040513d6000823e601f3d9081017fffffffffffffffffffffffffffffffffffffffffffffffffffffffffffffffe0168201604052610e8d9190810190612e19565b604051602001610ea1959493929190612e90565b604080518083037fffffffffffffffffffffffffffffffffffffffffffffffffffffffffffffffe0018152828252600e546000878152601160205292909220600f01547ff300633d0000000000000000000000000000000000000000000000000000000084527f6d6f757468000000000000000000000000000000000000000000000000000000600485015260248401529250829173ffffffffffffffffffffffffffffffffffffffff9091169063f300633d9060440160006040518083038186803b158015610f7057600080fd5b505afa158015610f84573d6000803e3d6000fd5b505050506040513d6000823e601f3d9081017fffffffffffffffffffffffffffffffffffffffffffffffffffffffffffffffe0168201604052610fca9190810190612e19565b600e54600086815260116020526040908190206010015490517ff300633d0000000000000000000000000000000000000000000000000000000081527f6e6f7365000000000000000000000000000000000000000000000000000000006004820152602481019190915273ffffffffffffffffffffffffffffffffffffffff9091169063f300633d9060440160006040518083038186803b15801561106e57600080fd5b505afa158015611082573d6000803e3d6000fd5b505050506040513d6000823e601f3d9081017fffffffffffffffffffffffffffffffffffffffffffffffffffffffffffffffe01682016040526110c89190810190612e19565b600e546040517ff300633d0000000000000000000000000000000000000000000000000000000081527f736869727400000000000000000000000000000000000000000000000000000060048201526000602482015273ffffffffffffffffffffffffffffffffffffffff9091169063f300633d9060440160006040518083038186803b15801561115857600080fd5b505afa15801561116c573d6000803e3d6000fd5b505050506040513d6000823e601f3d9081017fffffffffffffffffffffffffffffffffffffffffffffffffffffffffffffffe01682016040526111b29190810190612e19565b600e546040517ff300633d0000000000000000000000000000000000000000000000000000000081527f73686f727473000000000000000000000000000000000000000000000000000060048201526000602482015273ffffffffffffffffffffffffffffffffffffffff9091169063f300633d9060440160006040518083038186803b15801561124257600080fd5b505afa158015611256573d6000803e3d6000fd5b505050506040513d6000823e601f3d9081017fffffffffffffffffffffffffffffffffffffffffffffffffffffffffffffffe016820160405261129c9190810190612e19565b600e546040517ff300633d0000000000000000000000000000000000000000000000000000000081527f736f636b7300000000000000000000000000000000000000000000000000000060048201526000602482015273ffffffffffffffffffffffffffffffffffffffff9091169063f300633d9060440160006040518083038186803b15801561132c57600080fd5b505afa158015611340573d6000803e3d6000fd5b505050506040513d6000823e601f3d9081017fffffffffffffffffffffffffffffffffffffffffffffffffffffffffffffffe01682016040526113869190810190612e19565b600e546040517ff300633d0000000000000000000000000000000000000000000000000000000081527f73686f657300000000000000000000000000000000000000000000000000000060048201526000602482015273ffffffffffffffffffffffffffffffffffffffff9091169063f300633d9060440160006040518083038186803b15801561141657600080fd5b505afa15801561142a573d6000803e3d6000fd5b505050506040513d6000823e601f3d9081017fffffffffffffffffffffffffffffffffffffffffffffffffffffffffffffffe01682016040526114709190810190612e19565b6040516020016114869796959493929190612f99565b604051602081830303815290604052915050919050565b60008181526002602052604081205473ffffffffffffffffffffffffffffffffffffffff168061053a576040517f08c379a000000000000000000000000000000000000000000000000000000000815260206004820152602960248201527f4552433732313a206f776e657220717565727920666f72206e6f6e657869737460448201527f656e7420746f6b656e0000000000000000000000000000000000000000000000606482015260840161067f565b600073ffffffffffffffffffffffffffffffffffffffff82166115f4576040517f08c379a000000000000000000000000000000000000000000000000000000000815260206004820152602a60248201527f4552433732313a2062616c616e636520717565727920666f7220746865207a6560448201527f726f206164647265737300000000000000000000000000000000000000000000606482015260840161067f565b5073ffffffffffffffffffffffffffffffffffffffff1660009081526003602052604090205490565b60065473ffffffffffffffffffffffffffffffffffffffff16331461169e576040517f08c379a000000000000000000000000000000000000000000000000000000000815260206004820181905260248201527f4f776e61626c653a2063616c6c6572206973206e6f7420746865206f776e6572604482015260640161067f565b6116a86000612193565b565b60606001805461054f90612d96565b662386f26fc1000034146116cc57600080fd5b600f8054604080516020810185905280820191909152600560608201527f6669727374000000000000000000000000000000000000000000000000000000608082015260a0016040516020818303038152906040528051906020012060001c611735919061307f565b8154811061174557611745612dea565b906000526020600020016011600083815260200190815260200160002060010190805461177190612d96565b61177c92919061290c565b5060108054604080516020810185905280820191909152600460608201527f6c61737400000000000000000000000000000000000000000000000000000000608082015260a0016040516020818303038152906040528051906020012060001c6117e6919061307f565b815481106117f6576117f6612dea565b906000526020600020016011600083815260200190815260200160002060020190805461182290612d96565b61182d92919061290c565b50600061183b60068361307f565b600083815260116020526040812080547fffffffffffffffffffffffffffffffffffffffffffffffffffffffffffffff0016921592831790559091505b60078110156118eb57604080516020808201869052818301849052825180830384018152606090920190925280519101206118b590600b9061307f565b600084815260116020526040902060030182600781106118d7576118d7612dea565b0155806118e3816130c2565b915050611878565b5060005b600781101561197a576007816007811061190b5761190b612dea565b015460408051602081018690529081018390526060016040516020818303038152906040528051906020012060001c611944919061307f565b6000848152601160205260409020600a01826007811061196657611966612dea565b015580611972816130c2565b9150506118ef565b50611985338361220a565b7f590f064aa718c87d4487533ad7e291a0e9a71c1386c18c810a1fc02b05c99af88282601160008681526020019081526020016000206003016040516119cd939291906130fb565b60405180910390a15050565b6119e43383836123cc565b5050565b6119f23383611dbc565b611a7e576040517f08c379a000000000000000000000000000000000000000000000000000000000815260206004820152603160248201527f4552433732313a207472616e736665722063616c6c6572206973206e6f74206f60448201527f776e6572206e6f7220617070726f766564000000000000000000000000000000606482015260840161067f565b611a8a848484846124fa565b50505050565b60008181526002602052604090205460609073ffffffffffffffffffffffffffffffffffffffff16611b44576040517f08c379a000000000000000000000000000000000000000000000000000000000815260206004820152602f60248201527f4552433732314d657461646174613a2055524920717565727920666f72206e6f60448201527f6e6578697374656e7420746f6b656e0000000000000000000000000000000000606482015260840161067f565b6000611b5b60408051602081019091526000815290565b90506000815111611b7b5760405180602001604052806000815250611b96565b80611b858461259d565b604051602001611486929190613141565b9392505050565b611ba5612987565b60008281526011602052604090819020815160e0810190925260030160078282826020028201915b815481526020019060010190808311611bcd5750505050509050919050565b60065473ffffffffffffffffffffffffffffffffffffffff163314611c6d576040517f08c379a000000000000000000000000000000000000000000000000000000000815260206004820181905260248201527f4f776e61626c653a2063616c6c6572206973206e6f7420746865206f776e6572604482015260640161067f565b73ffffffffffffffffffffffffffffffffffffffff8116611d10576040517f08c379a000000000000000000000000000000000000000000000000000000000815260206004820152602660248201527f4f776e61626c653a206e6577206f776e657220697320746865207a65726f206160448201527f6464726573730000000000000000000000000000000000000000000000000000606482015260840161067f565b611d1981612193565b50565b600081815260046020526040902080547fffffffffffffffffffffffff00000000000000000000000000000000000000001673ffffffffffffffffffffffffffffffffffffffff84169081179091558190611d768261149d565b73ffffffffffffffffffffffffffffffffffffffff167f8c5be1e5ebec7d5bd14f71427d1e84f3dd0314c0f7b2291e5b200ac8c7c3b92560405160405180910390a45050565b60008181526002602052604081205473ffffffffffffffffffffffffffffffffffffffff16611e6d576040517f08c379a000000000000000000000000000000000000000000000000000000000815260206004820152602c60248201527f4552433732313a206f70657261746f7220717565727920666f72206e6f6e657860448201527f697374656e7420746f6b656e0000000000000000000000000000000000000000606482015260840161067f565b6000611e788361149d565b90508073ffffffffffffffffffffffffffffffffffffffff168473ffffffffffffffffffffffffffffffffffffffff161480611ee757508373ffffffffffffffffffffffffffffffffffffffff16611ecf846105d2565b73ffffffffffffffffffffffffffffffffffffffff16145b80611f24575073ffffffffffffffffffffffffffffffffffffffff80821660009081526005602090815260408083209388168352929052205460ff165b949350505050565b8273ffffffffffffffffffffffffffffffffffffffff16611f4c8261149d565b73ffffffffffffffffffffffffffffffffffffffff1614611fef576040517f08c379a000000000000000000000000000000000000000000000000000000000815260206004820152602960248201527f4552433732313a207472616e73666572206f6620746f6b656e2074686174206960448201527f73206e6f74206f776e0000000000000000000000000000000000000000000000606482015260840161067f565b73ffffffffffffffffffffffffffffffffffffffff8216612091576040517f08c379a0000000000000000000000000000000000000000000000000000000008152602060048201526024808201527f4552433732313a207472616e7366657220746f20746865207a65726f2061646460448201527f7265737300000000000000000000000000000000000000000000000000000000606482015260840161067f565b61209c600082611d1c565b73ffffffffffffffffffffffffffffffffffffffff831660009081526003602052604081208054600192906120d2908490613170565b909155505073ffffffffffffffffffffffffffffffffffffffff8216600090815260036020526040812080546001929061210d908490613187565b909155505060008181526002602052604080822080547fffffffffffffffffffffffff00000000000000000000000000000000000000001673ffffffffffffffffffffffffffffffffffffffff86811691821790925591518493918716917fddf252ad1be2c89b69c2b068fc378daa952ba7f163c4a11628f55a4df523b3ef91a4505050565b6006805473ffffffffffffffffffffffffffffffffffffffff8381167fffffffffffffffffffffffff0000000000000000000000000000000000000000831681179093556040519116919082907f8be0079c531659141344cd1fd0a4f28419497f9722a3daafe3b4186f6b6457e090600090a35050565b73ffffffffffffffffffffffffffffffffffffffff8216612287576040517f08c379a000000000000000000000000000000000000000000000000000000000815260206004820181905260248201527f4552433732313a206d696e7420746f20746865207a65726f2061646472657373604482015260640161067f565b60008181526002602052604090205473ffffffffffffffffffffffffffffffffffffffff1615612313576040517f08c379a000000000000000000000000000000000000000000000000000000000815260206004820152601c60248201527f4552433732313a20746f6b656e20616c7265616479206d696e74656400000000604482015260640161067f565b73ffffffffffffffffffffffffffffffffffffffff82166000908152600360205260408120805460019290612349908490613187565b909155505060008181526002602052604080822080547fffffffffffffffffffffffff00000000000000000000000000000000000000001673ffffffffffffffffffffffffffffffffffffffff861690811790915590518392907fddf252ad1be2c89b69c2b068fc378daa952ba7f163c4a11628f55a4df523b3ef908290a45050565b8173ffffffffffffffffffffffffffffffffffffffff168373ffffffffffffffffffffffffffffffffffffffff161415612462576040517f08c379a000000000000000000000000000000000000000000000000000000000815260206004820152601960248201527f4552433732313a20617070726f766520746f2063616c6c657200000000000000604482015260640161067f565b73ffffffffffffffffffffffffffffffffffffffff83811660008181526005602090815260408083209487168084529482529182902080547fffffffffffffffffffffffffffffffffffffffffffffffffffffffffffffff001686151590811790915591519182527f17307eab39ab6107e8899845ad3d59bd9653f200f220920489ca2b5937696c31910160405180910390a3505050565b612505848484611f2c565b612511848484846126cf565b611a8a576040517f08c379a000000000000000000000000000000000000000000000000000000000815260206004820152603260248201527f4552433732313a207472616e7366657220746f206e6f6e20455243373231526560448201527f63656976657220696d706c656d656e7465720000000000000000000000000000606482015260840161067f565b6060816125dd57505060408051808201909152600181527f3000000000000000000000000000000000000000000000000000000000000000602082015290565b8160005b811561260757806125f1816130c2565b91506126009050600a8361319f565b91506125e1565b60008167ffffffffffffffff81111561262257612622612bc3565b6040519080825280601f01601f19166020018201604052801561264c576020820181803683370190505b5090505b8415611f2457612661600183613170565b915061266e600a8661307f565b612679906030613187565b60f81b81838151811061268e5761268e612dea565b60200101907effffffffffffffffffffffffffffffffffffffffffffffffffffffffffffff1916908160001a9053506126c8600a8661319f565b9450612650565b600073ffffffffffffffffffffffffffffffffffffffff84163b156128c3576040517f150b7a0200000000000000000000000000000000000000000000000000000000815273ffffffffffffffffffffffffffffffffffffffff85169063150b7a02906127469033908990889088906004016131b3565b602060405180830381600087803b15801561276057600080fd5b505af19250505080156127ae575060408051601f3d9081017fffffffffffffffffffffffffffffffffffffffffffffffffffffffffffffffe01682019092526127ab918101906131fc565b60015b612878573d8080156127dc576040519150601f19603f3d011682016040523d82523d6000602084013e6127e1565b606091505b508051612870576040517f08c379a000000000000000000000000000000000000000000000000000000000815260206004820152603260248201527f4552433732313a207472616e7366657220746f206e6f6e20455243373231526560448201527f63656976657220696d706c656d656e7465720000000000000000000000000000606482015260840161067f565b805181602001fd5b7fffffffff00000000000000000000000000000000000000000000000000000000167f150b7a0200000000000000000000000000000000000000000000000000000000149050611f24565b506001949350505050565b82600781019282156128fc579160200282015b828111156128fc5782358255916020019190600101906128e1565b506129089291506129a5565b5090565b82805461291890612d96565b90600052602060002090601f01602090048101928261293a57600085556128fc565b82601f1061294b57805485556128fc565b828001600101855582156128fc57600052602060002091601f016020900482015b828111156128fc57825482559160010191906001019061296c565b6040518060e001604052806007906020820280368337509192915050565b5b8082111561290857600081556001016129a6565b7fffffffff0000000000000000000000000000000000000000000000000000000081168114611d1957600080fd5b6000602082840312156129fa57600080fd5b8135611b96816129ba565b60005b83811015612a20578181015183820152602001612a08565b83811115611a8a5750506000910152565b60008151808452612a49816020860160208601612a05565b601f017fffffffffffffffffffffffffffffffffffffffffffffffffffffffffffffffe0169290920160200192915050565b602081526000611b966020830184612a31565b600060208284031215612aa057600080fd5b5035919050565b803573ffffffffffffffffffffffffffffffffffffffff81168114612acb57600080fd5b919050565b60008060408385031215612ae357600080fd5b612aec83612aa7565b946020939093013593505050565b600080610100808486031215612b0f57600080fd5b83359250848185011115612b2257600080fd5b506020830190509250929050565b600080600060608486031215612b4557600080fd5b612b4e84612aa7565b9250612b5c60208501612aa7565b9150604084013590509250925092565b600060208284031215612b7e57600080fd5b611b9682612aa7565b60008060408385031215612b9a57600080fd5b612ba383612aa7565b915060208301358015158114612bb857600080fd5b809150509250929050565b7f4e487b7100000000000000000000000000000000000000000000000000000000600052604160045260246000fd5b604051601f82017fffffffffffffffffffffffffffffffffffffffffffffffffffffffffffffffe016810167ffffffffffffffff81118282101715612c3957612c39612bc3565b604052919050565b600067ffffffffffffffff821115612c5b57612c5b612bc3565b50601f017fffffffffffffffffffffffffffffffffffffffffffffffffffffffffffffffe01660200190565b60008060008060808587031215612c9d57600080fd5b612ca685612aa7565b9350612cb460208601612aa7565b925060408501359150606085013567ffffffffffffffff811115612cd757600080fd5b8501601f81018713612ce857600080fd5b8035612cfb612cf682612c41565b612bf2565b818152886020838501011115612d1057600080fd5b8160208401602083013760006020838301015280935050505092959194509250565b60e08101818360005b6007811015612d5a578151835260209283019290910190600101612d3b565b50505092915050565b60008060408385031215612d7657600080fd5b612d7f83612aa7565b9150612d8d60208401612aa7565b90509250929050565b600181811c90821680612daa57607f821691505b60208210811415612de4577f4e487b7100000000000000000000000000000000000000000000000000000000600052602260045260246000fd5b50919050565b7f4e487b7100000000000000000000000000000000000000000000000000000000600052603260045260246000fd5b600060208284031215612e2b57600080fd5b815167ffffffffffffffff811115612e4257600080fd5b8201601f81018413612e5357600080fd5b8051612e61612cf682612c41565b818152856020838501011115612e7657600080fd5b612e87826020830160208601612a05565b95945050505050565b7f3c73766720786d6c6e733d22687474703a2f2f7777772e77332e6f72672f32308152600060207f30302f7376672220786d6c6e733a786c696e6b3d22687474703a2f2f7777772e818401527f77332e6f72672f313939392f786c696e6b222076696577426f783d223020302060408401527f32313020323937223e000000000000000000000000000000000000000000000060608401528751612f3a8160698601848c01612a05565b875190840190612f508160698401858c01612a05565b8751910190612f658160698401858b01612a05565b8651910160690190612f7a8183858a01612a05565b8551910190612f8c8183858901612a05565b0198975050505050505050565b600088516020612fac8285838e01612a05565b895191840191612fbf8184848e01612a05565b8951920191612fd18184848d01612a05565b8851920191612fe38184848c01612a05565b8751920191612ff58184848b01612a05565b86519201916130078184848a01612a05565b85519201916130198184848901612a05565b7f3c2f7376673e00000000000000000000000000000000000000000000000000009201918252506006019998505050505050505050565b7f4e487b7100000000000000000000000000000000000000000000000000000000600052601260045260246000fd5b60008261308e5761308e613050565b500690565b7f4e487b7100000000000000000000000000000000000000000000000000000000600052601160045260246000fd5b60007fffffffffffffffffffffffffffffffffffffffffffffffffffffffffffffffff8214156130f4576130f4613093565b5060010190565b600061012082019050848252602084151581840152604083018460005b600781101561313557815483529183019160019182019101613118565b50505050949350505050565b60008351613153818460208801612a05565b835190830190613167818360208801612a05565b01949350505050565b60008282101561318257613182613093565b500390565b6000821982111561319a5761319a613093565b500190565b6000826131ae576131ae613050565b500490565b600073ffffffffffffffffffffffffffffffffffffffff8087168352808616602084015250836040830152608060608301526131f26080830184612a31565b9695505050505050565b60006020828403121561320e57600080fd5b8151611b96816129ba56fea26469706673582212202f14f92a1baf613a49e0cda83170542fbdfbaafbf481cef87a40604bf2cd4b8464736f6c63430008090033",
  "devdoc": {
    "kind": "dev",
    "methods": {
      "approve(address,uint256)": {
        "details": "See {IERC721-approve}."
      },
      "balanceOf(address)": {
        "details": "See {IERC721-balanceOf}."
      },
      "getApproved(uint256)": {
        "details": "See {IERC721-getApproved}."
      },
      "isApprovedForAll(address,address)": {
        "details": "See {IERC721-isApprovedForAll}."
      },
      "name()": {
        "details": "See {IERC721Metadata-name}."
      },
      "owner()": {
        "details": "Returns the address of the current owner."
      },
      "ownerOf(uint256)": {
        "details": "See {IERC721-ownerOf}."
      },
      "renounceOwnership()": {
        "details": "Leaves the contract without owner. It will not be possible to call `onlyOwner` functions anymore. Can only be called by the current owner. NOTE: Renouncing ownership will leave the contract without an owner, thereby removing any functionality that is only available to the owner."
      },
      "safeTransferFrom(address,address,uint256)": {
        "details": "See {IERC721-safeTransferFrom}."
      },
      "safeTransferFrom(address,address,uint256,bytes)": {
        "details": "See {IERC721-safeTransferFrom}."
      },
      "setApprovalForAll(address,bool)": {
        "details": "See {IERC721-setApprovalForAll}."
      },
      "supportsInterface(bytes4)": {
        "details": "See {IERC165-supportsInterface}."
      },
      "symbol()": {
        "details": "See {IERC721Metadata-symbol}."
      },
      "tokenURI(uint256)": {
        "details": "See {IERC721Metadata-tokenURI}."
      },
      "transferFrom(address,address,uint256)": {
        "details": "See {IERC721-transferFrom}."
      },
      "transferOwnership(address)": {
        "details": "Transfers ownership of the contract to a new account (`newOwner`). Can only be called by the current owner."
      }
    },
    "version": 1
  },
  "userdoc": {
    "kind": "user",
    "methods": {},
    "version": 1
  },
  "storageLayout": {
    "storage": [
      {
        "astId": 515,
        "contract": "src/FootiumLitePlayers/FootiumLitePlayers.sol:FootiumLitePlayers",
        "label": "_name",
        "offset": 0,
        "slot": "0",
        "type": "t_string_storage"
      },
      {
        "astId": 517,
        "contract": "src/FootiumLitePlayers/FootiumLitePlayers.sol:FootiumLitePlayers",
        "label": "_symbol",
        "offset": 0,
        "slot": "1",
        "type": "t_string_storage"
      },
      {
        "astId": 521,
        "contract": "src/FootiumLitePlayers/FootiumLitePlayers.sol:FootiumLitePlayers",
        "label": "_owners",
        "offset": 0,
        "slot": "2",
        "type": "t_mapping(t_uint256,t_address)"
      },
      {
        "astId": 525,
        "contract": "src/FootiumLitePlayers/FootiumLitePlayers.sol:FootiumLitePlayers",
        "label": "_balances",
        "offset": 0,
        "slot": "3",
        "type": "t_mapping(t_address,t_uint256)"
      },
      {
        "astId": 529,
        "contract": "src/FootiumLitePlayers/FootiumLitePlayers.sol:FootiumLitePlayers",
        "label": "_tokenApprovals",
        "offset": 0,
        "slot": "4",
        "type": "t_mapping(t_uint256,t_address)"
      },
      {
        "astId": 535,
        "contract": "src/FootiumLitePlayers/FootiumLitePlayers.sol:FootiumLitePlayers",
        "label": "_operatorApprovals",
        "offset": 0,
        "slot": "5",
        "type": "t_mapping(t_address,t_mapping(t_address,t_bool))"
      },
      {
        "astId": 392,
        "contract": "src/FootiumLitePlayers/FootiumLitePlayers.sol:FootiumLitePlayers",
        "label": "_owner",
        "offset": 0,
        "slot": "6",
        "type": "t_address"
      },
      {
        "astId": 2579,
        "contract": "src/FootiumLitePlayers/FootiumLitePlayers.sol:FootiumLitePlayers",
        "label": "maxImageTraits",
        "offset": 0,
        "slot": "7",
        "type": "t_array(t_uint256)7_storage"
      },
      {
        "astId": 2597,
        "contract": "src/FootiumLitePlayers/FootiumLitePlayers.sol:FootiumLitePlayers",
        "label": "svgs",
        "offset": 0,
        "slot": "14",
        "type": "t_contract(Svgs)3007"
      },
      {
        "astId": 2600,
        "contract": "src/FootiumLitePlayers/FootiumLitePlayers.sol:FootiumLitePlayers",
        "label": "firstNames",
        "offset": 0,
        "slot": "15",
        "type": "t_array(t_string_storage)dyn_storage"
      },
      {
        "astId": 2603,
        "contract": "src/FootiumLitePlayers/FootiumLitePlayers.sol:FootiumLitePlayers",
        "label": "lastNames",
        "offset": 0,
        "slot": "16",
        "type": "t_array(t_string_storage)dyn_storage"
      },
      {
        "astId": 2608,
        "contract": "src/FootiumLitePlayers/FootiumLitePlayers.sol:FootiumLitePlayers",
        "label": "playersStats",
        "offset": 0,
        "slot": "17",
        "type": "t_mapping(t_uint256,t_struct(Player)2594_storage)"
      }
    ],
    "types": {
      "t_address": {
        "encoding": "inplace",
        "label": "address",
        "numberOfBytes": "20"
      },
      "t_array(t_string_storage)dyn_storage": {
        "base": "t_string_storage",
        "encoding": "dynamic_array",
        "label": "string[]",
        "numberOfBytes": "32"
      },
      "t_array(t_uint256)7_storage": {
        "base": "t_uint256",
        "encoding": "inplace",
        "label": "uint256[7]",
        "numberOfBytes": "224"
      },
      "t_bool": {
        "encoding": "inplace",
        "label": "bool",
        "numberOfBytes": "1"
      },
      "t_contract(Svgs)3007": {
        "encoding": "inplace",
        "label": "contract Svgs",
        "numberOfBytes": "20"
      },
      "t_mapping(t_address,t_bool)": {
        "encoding": "mapping",
        "key": "t_address",
        "label": "mapping(address => bool)",
        "numberOfBytes": "32",
        "value": "t_bool"
      },
      "t_mapping(t_address,t_mapping(t_address,t_bool))": {
        "encoding": "mapping",
        "key": "t_address",
        "label": "mapping(address => mapping(address => bool))",
        "numberOfBytes": "32",
        "value": "t_mapping(t_address,t_bool)"
      },
      "t_mapping(t_address,t_uint256)": {
        "encoding": "mapping",
        "key": "t_address",
        "label": "mapping(address => uint256)",
        "numberOfBytes": "32",
        "value": "t_uint256"
      },
      "t_mapping(t_uint256,t_address)": {
        "encoding": "mapping",
        "key": "t_uint256",
        "label": "mapping(uint256 => address)",
        "numberOfBytes": "32",
        "value": "t_address"
      },
      "t_mapping(t_uint256,t_struct(Player)2594_storage)": {
        "encoding": "mapping",
        "key": "t_uint256",
        "label": "mapping(uint256 => struct FootiumLitePlayers.Player)",
        "numberOfBytes": "32",
        "value": "t_struct(Player)2594_storage"
      },
      "t_string_storage": {
        "encoding": "bytes",
        "label": "string",
        "numberOfBytes": "32"
      },
      "t_struct(Player)2594_storage": {
        "encoding": "inplace",
        "label": "struct FootiumLitePlayers.Player",
        "members": [
          {
            "astId": 2581,
            "contract": "src/FootiumLitePlayers/FootiumLitePlayers.sol:FootiumLitePlayers",
            "label": "keeper",
            "offset": 0,
            "slot": "0",
            "type": "t_bool"
          },
          {
            "astId": 2583,
            "contract": "src/FootiumLitePlayers/FootiumLitePlayers.sol:FootiumLitePlayers",
            "label": "firstName",
            "offset": 0,
            "slot": "1",
            "type": "t_string_storage"
          },
          {
            "astId": 2585,
            "contract": "src/FootiumLitePlayers/FootiumLitePlayers.sol:FootiumLitePlayers",
            "label": "lastName",
            "offset": 0,
            "slot": "2",
            "type": "t_string_storage"
          },
          {
            "astId": 2589,
            "contract": "src/FootiumLitePlayers/FootiumLitePlayers.sol:FootiumLitePlayers",
            "label": "numericTraits",
            "offset": 0,
            "slot": "3",
            "type": "t_array(t_uint256)7_storage"
          },
          {
            "astId": 2593,
            "contract": "src/FootiumLitePlayers/FootiumLitePlayers.sol:FootiumLitePlayers",
            "label": "imageTraits",
            "offset": 0,
            "slot": "10",
            "type": "t_array(t_uint256)7_storage"
          }
        ],
        "numberOfBytes": "544"
      },
      "t_uint256": {
        "encoding": "inplace",
        "label": "uint256",
        "numberOfBytes": "32"
      }
    }
  }
}