{
  "address": "0x9F03a183f1BE54401286e131764243F4F8C4934f",
  "abi": [
    {
      "inputs": [
        {
          "internalType": "address",
          "name": "vrfCoordinator",
          "type": "address"
        },
        {
          "internalType": "address",
          "name": "link",
          "type": "address"
        },
        {
          "internalType": "contract FootiumLitePlayers",
          "name": "_players",
          "type": "address"
        }
      ],
      "stateMutability": "nonpayable",
      "type": "constructor"
    },
    {
      "anonymous": false,
      "inputs": [
        {
          "indexed": false,
          "internalType": "uint256",
          "name": "index",
          "type": "uint256"
        },
        {
          "indexed": false,
          "internalType": "uint256",
          "name": "timestamp",
          "type": "uint256"
        },
        {
          "indexed": false,
          "internalType": "address",
          "name": "accountA",
          "type": "address"
        },
        {
          "indexed": false,
          "internalType": "address",
          "name": "accountB",
          "type": "address"
        },
        {
          "indexed": false,
          "internalType": "uint256[5]",
          "name": "formationA",
          "type": "uint256[5]"
        },
        {
          "indexed": false,
          "internalType": "uint256[5]",
          "name": "formationB",
          "type": "uint256[5]"
        }
      ],
      "name": "MatchRegistered",
      "type": "event"
    },
    {
      "anonymous": false,
      "inputs": [
        {
          "indexed": false,
          "internalType": "uint256",
          "name": "index",
          "type": "uint256"
        },
        {
          "indexed": false,
          "internalType": "bytes32",
          "name": "requestId",
          "type": "bytes32"
        }
      ],
      "name": "MatchRequested",
      "type": "event"
    },
    {
      "anonymous": false,
      "inputs": [
        {
          "indexed": false,
          "internalType": "uint256",
          "name": "index",
          "type": "uint256"
        },
        {
          "indexed": false,
          "internalType": "uint256",
          "name": "seed",
          "type": "uint256"
        }
      ],
      "name": "MatchSeed",
      "type": "event"
    },
    {
      "anonymous": false,
      "inputs": [
        {
          "indexed": false,
          "internalType": "address",
          "name": "owner",
          "type": "address"
        },
        {
          "indexed": false,
          "internalType": "uint256[5]",
          "name": "formation",
          "type": "uint256[5]"
        }
      ],
      "name": "TacticsSet",
      "type": "event"
    },
    {
      "inputs": [
        {
          "internalType": "uint256[]",
          "name": "formation",
          "type": "uint256[]"
        }
      ],
      "name": "formationInvalid",
      "outputs": [
        {
          "internalType": "bool",
          "name": "",
          "type": "bool"
        }
      ],
      "stateMutability": "pure",
      "type": "function"
    },
    {
      "inputs": [
        {
          "internalType": "bytes32",
          "name": "requestId",
          "type": "bytes32"
        },
        {
          "internalType": "uint256",
          "name": "randomness",
          "type": "uint256"
        }
      ],
      "name": "rawFulfillRandomness",
      "outputs": [],
      "stateMutability": "nonpayable",
      "type": "function"
    },
    {
      "inputs": [
        {
          "internalType": "address",
          "name": "accountB",
          "type": "address"
        },
        {
          "internalType": "uint256",
          "name": "timestamp",
          "type": "uint256"
        }
      ],
      "name": "registerMatch",
      "outputs": [],
      "stateMutability": "nonpayable",
      "type": "function"
    },
    {
      "inputs": [
        {
          "internalType": "uint256",
          "name": "index",
          "type": "uint256"
        }
      ],
      "name": "requestSeed",
      "outputs": [],
      "stateMutability": "nonpayable",
      "type": "function"
    },
    {
      "inputs": [
        {
          "internalType": "uint256[5]",
          "name": "formation",
          "type": "uint256[5]"
        }
      ],
      "name": "setTactics",
      "outputs": [],
      "stateMutability": "nonpayable",
      "type": "function"
    },
    {
      "inputs": [
        {
          "internalType": "uint256",
          "name": "seed",
          "type": "uint256"
        },
        {
          "internalType": "uint256[]",
          "name": "formationA",
          "type": "uint256[]"
        },
        {
          "internalType": "uint256[]",
          "name": "formationB",
          "type": "uint256[]"
        }
      ],
      "name": "simulateMatch",
      "outputs": [
        {
          "internalType": "enum FootiumLiteFriendlies.SimStatus",
          "name": "",
          "type": "uint8"
        }
      ],
      "stateMutability": "view",
      "type": "function"
    }
  ],
  "transactionHash": "0x61a13729d50dd8ce13b5816d8e6591fb63c011a916f95e97d724e8a19387fe96",
  "args": [
    "0x346eb487B62058108Cf0ed7d2638b8bD79F2713F",
    "0x293a1DBcc5654206fA747e666f46DCe174D3EA7f",
    "0x832f7461Fd2FaBd90D6eCA465FbB9F4914DBFb6e"
  ],
  "numDeployments": 1,
  "solcInputHash": "60383510c8574857e1f67441cf4292bd",
  "bytecode": "0x60c060405234801561001057600080fd5b506040516111a83803806111a883398101604081905261002f91610075565b6001600160a01b0392831660a052908216608052600180546001600160a01b031916919092161790556100c2565b6001600160a01b038116811461007257600080fd5b50565b60008060006060848603121561008a57600080fd5b83516100958161005d565b60208501519093506100a68161005d565b60408501519092506100b78161005d565b809150509250925092565b60805160a0516110ba6100ee600039600081816106a5015261099b0152600061095f01526110ba6000f3fe608060405234801561001057600080fd5b50600436106100725760003560e01c80636d663261116100505780636d663261146100c757806394985ddd146100e7578063a9df851a146100fa57600080fd5b8063252acdf91461007757806334163ecc1461009f5780634d0d6323146100b4575b600080fd5b61008a610085366004610bae565b61010d565b60405190151581526020015b60405180910390f35b6100b26100ad366004610bf0565b61019f565b005b6100b26100c2366004610c18565b6101f7565b6100da6100d5366004610c5d565b61041b565b6040516100969190610d06565b6100b26100f5366004610d47565b61068d565b6100b2610108366004610d69565b61073e565b6000610117610af1565b60005b6005811015610192578185858381811061013657610136610d82565b905060200201356005811061014d5761014d610d82565b60200201511561016257600192505050610199565b600182826005811061017657610176610d82565b911515602090920201528061018a81610de0565b91505061011a565b5060009150505b92915050565b3360009081526004602052604090206101ba90826005610b0f565b507f378e91326e6593b9ecc505ba5e2f175a199e68f0f67132577c5094fdecac6a5833826040516101ec929190610e19565b60405180910390a150565b6002546040805160a081018252600080825260208201859052339282019290925273ffffffffffffffffffffffffffffffffffffffff8516606082015260808101829052600280546001810182556000829052825160049091027f405787fa12a823e0f2b7631cc41b3ba8828b3321ca811111fa75cd3aa3bb5ace810191825560208401517f405787fa12a823e0f2b7631cc41b3ba8828b3321ca811111fa75cd3aa3bb5acf82015560408401517f405787fa12a823e0f2b7631cc41b3ba8828b3321ca811111fa75cd3aa3bb5ad08201805473ffffffffffffffffffffffffffffffffffffffff9283167fffffffffffffffffffffffff00000000000000000000000000000000000000009182161790915560608601517f405787fa12a823e0f2b7631cc41b3ba8828b3321ca811111fa75cd3aa3bb5ad19093018054939092169083168117825560808601519596508695939491927fffffffffffffffffffffff0000000000000000000000000000000000000000001617907401000000000000000000000000000000000000000090849081111561039a5761039a610cd7565b021790555050506040808201516060830151336000908152600460205283812073ffffffffffffffffffffffffffffffffffffffff891682529084902093517f58590192acf41202c9c78ebd5bdf7df38cdde909e40da2026097a31a910380639461040d9488948a949193909290610e72565b60405180910390a150505050565b600080610428868661010d565b90506000610436858561010d565b90508180156104425750805b1561045257600292505050610684565b811561046357600192505050610684565b801561047457600092505050610684565b60008060005b60058110156106525760015460009073ffffffffffffffffffffffffffffffffffffffff1663e1dc07618c8c858181106104b6576104b6610d82565b905060200201356040518263ffffffff1660e01b81526004016104db91815260200190565b60e06040518083038186803b1580156104f357600080fd5b505afa158015610507573d6000803e3d6000fd5b505050506040513d601f19601f8201168201806040525081019061052b9190610ecb565b60015490915060009073ffffffffffffffffffffffffffffffffffffffff1663e1dc07618b8b8681811061056157610561610d82565b905060200201356040518263ffffffff1660e01b815260040161058691815260200190565b60e06040518083038186803b15801561059e57600080fd5b505afa1580156105b2573d6000803e3d6000fd5b505050506040513d601f19601f820116820180604052508101906105d69190610ecb565b905060005b600781101561063c578281600781106105f6576105f6610d82565b60200201516106059087610f70565b955081816007811061061957610619610d82565b60200201516106289086610f70565b94508061063481610de0565b9150506105db565b505050808061064a90610de0565b91505061047a565b508161065e8282610f70565b610668908c610f88565b101561067b576000945050505050610684565b60019450505050505b95945050505050565b3373ffffffffffffffffffffffffffffffffffffffff7f00000000000000000000000000000000000000000000000000000000000000001614610730576040517f08c379a000000000000000000000000000000000000000000000000000000000815260206004820152601f60248201527f4f6e6c7920565246436f6f7264696e61746f722063616e2066756c66696c6c00604482015260640160405180910390fd5b61073a828261089e565b5050565b60006002828154811061075357610753610d82565b60009182526020918290206040805160a08101825260049093029091018054835260018101549383019390935260028084015473ffffffffffffffffffffffffffffffffffffffff9081169284019290925260038401549182166060840152919291608084019160ff7401000000000000000000000000000000000000000090910416908111156107e6576107e6610cd7565b60028111156107f7576107f7610cd7565b815250509050806020015142101561080e57600080fd5b60006108427f6c3699283bda56ad74f6b855546325b68d482e983852a7a82979cc4807b641f467016345785d8a000061095b565b600081815260036020526040902084905590506001608083018190525060408051848152602081018390527fde540f9ac7c3840ea842a6d04dd9d17a3ffefcb96dba4655fc9fa801b6e7efd891015b60405180910390a1505050565b6000828152600360205260408120546002805490919081106108c2576108c2610d82565b60009182526020808320600492909202909101848155600380820180547fffffffffffffffffffffff00ffffffffffffffffffffffffffffffffffffffff1674020000000000000000000000000000000000000000179055868452825260409283902054835190815291820185905292507f313cb7879f66195ba45d2e7734345d5f81497e51c4312cbe6131f1c4b37e34159101610891565b60007f000000000000000000000000000000000000000000000000000000000000000073ffffffffffffffffffffffffffffffffffffffff16634000aea07f0000000000000000000000000000000000000000000000000000000000000000848660006040516020016109d8929190918252602082015260400190565b6040516020818303038152906040526040518463ffffffff1660e01b8152600401610a0593929190610fc3565b602060405180830381600087803b158015610a1f57600080fd5b505af1158015610a33573d6000803e3d6000fd5b505050506040513d601f19601f82011682018060405250810190610a57919061105b565b5060008381526020818152604080832054815180840188905280830185905230606082015260808082018390528351808303909101815260a090910190925281519183019190912086845292909152610ab1906001610f70565b6000858152602081815260409182902092909255805180830187905280820184905281518082038301815260609091019091528051910120949350505050565b6040518060a001604052806005906020820280368337509192915050565b8260058101928215610b3d579160200282015b82811115610b3d578235825591602001919060010190610b22565b50610b49929150610b4d565b5090565b5b80821115610b495760008155600101610b4e565b60008083601f840112610b7457600080fd5b50813567ffffffffffffffff811115610b8c57600080fd5b6020830191508360208260051b8501011115610ba757600080fd5b9250929050565b60008060208385031215610bc157600080fd5b823567ffffffffffffffff811115610bd857600080fd5b610be485828601610b62565b90969095509350505050565b600060a08284031215610c0257600080fd5b8260a083011115610c1257600080fd5b50919050565b60008060408385031215610c2b57600080fd5b823573ffffffffffffffffffffffffffffffffffffffff81168114610c4f57600080fd5b946020939093013593505050565b600080600080600060608688031215610c7557600080fd5b85359450602086013567ffffffffffffffff80821115610c9457600080fd5b610ca089838a01610b62565b90965094506040880135915080821115610cb957600080fd5b50610cc688828901610b62565b969995985093965092949392505050565b7f4e487b7100000000000000000000000000000000000000000000000000000000600052602160045260246000fd5b6020810160038310610d41577f4e487b7100000000000000000000000000000000000000000000000000000000600052602160045260246000fd5b91905290565b60008060408385031215610d5a57600080fd5b50508035926020909101359150565b600060208284031215610d7b57600080fd5b5035919050565b7f4e487b7100000000000000000000000000000000000000000000000000000000600052603260045260246000fd5b7f4e487b7100000000000000000000000000000000000000000000000000000000600052601160045260246000fd5b60007fffffffffffffffffffffffffffffffffffffffffffffffffffffffffffffffff821415610e1257610e12610db1565b5060010190565b73ffffffffffffffffffffffffffffffffffffffff8316815260c0810160a0836020840137600081529392505050565b8060005b6005811015610e6c578154845260209093019260019182019101610e4d565b50505050565b8681526020810186905273ffffffffffffffffffffffffffffffffffffffff8581166040830152841660608201526101c08101610eb26080830185610e49565b610ec0610120830184610e49565b979650505050505050565b600060e08284031215610edd57600080fd5b82601f830112610eec57600080fd5b60405160e0810181811067ffffffffffffffff82111715610f36577f4e487b7100000000000000000000000000000000000000000000000000000000600052604160045260246000fd5b6040528060e0840185811115610f4b57600080fd5b845b81811015610f65578051835260209283019201610f4d565b509195945050505050565b60008219821115610f8357610f83610db1565b500190565b600082610fbe577f4e487b7100000000000000000000000000000000000000000000000000000000600052601260045260246000fd5b500690565b73ffffffffffffffffffffffffffffffffffffffff8416815260006020848184015260606040840152835180606085015260005b8181101561101357858101830151858201608001528201610ff7565b81811115611025576000608083870101525b50601f017fffffffffffffffffffffffffffffffffffffffffffffffffffffffffffffffe0169290920160800195945050505050565b60006020828403121561106d57600080fd5b8151801515811461107d57600080fd5b939250505056fea2646970667358221220cf8536e890d75ed3116d292133bdf20a759c169567fa0c6017832cd824a981b064736f6c63430008090033",
  "devdoc": {
    "kind": "dev",
    "methods": {},
    "version": 1
  },
  "userdoc": {
    "kind": "user",
    "methods": {},
    "version": 1
  },
  "storageLayout": {
    "storage": [
      {
        "astId": 79,
        "contract": "src/FootiumLiteFriendlies/FootiumLiteFriendlies.sol:FootiumLiteFriendlies",
        "label": "nonces",
        "offset": 0,
        "slot": "0",
        "type": "t_mapping(t_bytes32,t_uint256)"
      },
      {
        "astId": 2082,
        "contract": "src/FootiumLiteFriendlies/FootiumLiteFriendlies.sol:FootiumLiteFriendlies",
        "label": "players",
        "offset": 0,
        "slot": "1",
        "type": "t_contract(FootiumLitePlayers)2949"
      },
      {
        "astId": 2086,
        "contract": "src/FootiumLiteFriendlies/FootiumLiteFriendlies.sol:FootiumLiteFriendlies",
        "label": "matches",
        "offset": 0,
        "slot": "2",
        "type": "t_array(t_struct(Match)2079_storage)dyn_storage"
      },
      {
        "astId": 2090,
        "contract": "src/FootiumLiteFriendlies/FootiumLiteFriendlies.sol:FootiumLiteFriendlies",
        "label": "requestToMatch",
        "offset": 0,
        "slot": "3",
        "type": "t_mapping(t_bytes32,t_uint256)"
      },
      {
        "astId": 2096,
        "contract": "src/FootiumLiteFriendlies/FootiumLiteFriendlies.sol:FootiumLiteFriendlies",
        "label": "formations",
        "offset": 0,
        "slot": "4",
        "type": "t_mapping(t_address,t_array(t_uint256)5_storage)"
      }
    ],
    "types": {
      "t_address": {
        "encoding": "inplace",
        "label": "address",
        "numberOfBytes": "20"
      },
      "t_array(t_struct(Match)2079_storage)dyn_storage": {
        "base": "t_struct(Match)2079_storage",
        "encoding": "dynamic_array",
        "label": "struct FootiumLiteFriendlies.Match[]",
        "numberOfBytes": "32"
      },
      "t_array(t_uint256)5_storage": {
        "base": "t_uint256",
        "encoding": "inplace",
        "label": "uint256[5]",
        "numberOfBytes": "160"
      },
      "t_bytes32": {
        "encoding": "inplace",
        "label": "bytes32",
        "numberOfBytes": "32"
      },
      "t_contract(FootiumLitePlayers)2949": {
        "encoding": "inplace",
        "label": "contract FootiumLitePlayers",
        "numberOfBytes": "20"
      },
      "t_enum(MatchStatus)2063": {
        "encoding": "inplace",
        "label": "enum FootiumLiteFriendlies.MatchStatus",
        "numberOfBytes": "1"
      },
      "t_mapping(t_address,t_array(t_uint256)5_storage)": {
        "encoding": "mapping",
        "key": "t_address",
        "label": "mapping(address => uint256[5])",
        "numberOfBytes": "32",
        "value": "t_array(t_uint256)5_storage"
      },
      "t_mapping(t_bytes32,t_uint256)": {
        "encoding": "mapping",
        "key": "t_bytes32",
        "label": "mapping(bytes32 => uint256)",
        "numberOfBytes": "32",
        "value": "t_uint256"
      },
      "t_struct(Match)2079_storage": {
        "encoding": "inplace",
        "label": "struct FootiumLiteFriendlies.Match",
        "members": [
          {
            "astId": 2069,
            "contract": "src/FootiumLiteFriendlies/FootiumLiteFriendlies.sol:FootiumLiteFriendlies",
            "label": "seed",
            "offset": 0,
            "slot": "0",
            "type": "t_uint256"
          },
          {
            "astId": 2071,
            "contract": "src/FootiumLiteFriendlies/FootiumLiteFriendlies.sol:FootiumLiteFriendlies",
            "label": "timestamp",
            "offset": 0,
            "slot": "1",
            "type": "t_uint256"
          },
          {
            "astId": 2073,
            "contract": "src/FootiumLiteFriendlies/FootiumLiteFriendlies.sol:FootiumLiteFriendlies",
            "label": "accountA",
            "offset": 0,
            "slot": "2",
            "type": "t_address"
          },
          {
            "astId": 2075,
            "contract": "src/FootiumLiteFriendlies/FootiumLiteFriendlies.sol:FootiumLiteFriendlies",
            "label": "accountB",
            "offset": 0,
            "slot": "3",
            "type": "t_address"
          },
          {
            "astId": 2078,
            "contract": "src/FootiumLiteFriendlies/FootiumLiteFriendlies.sol:FootiumLiteFriendlies",
            "label": "status",
            "offset": 20,
            "slot": "3",
            "type": "t_enum(MatchStatus)2063"
          }
        ],
        "numberOfBytes": "128"
      },
      "t_uint256": {
        "encoding": "inplace",
        "label": "uint256",
        "numberOfBytes": "32"
      }
    }
  }
}